{
	"contracts/simple_storage.sol": {
		"SimpleStorage": {
			"abi": [
				{
					"inputs": [
						{
							"internalType": "uint256",
							"name": "_favorite_number",
							"type": "uint256"
						},
						{
							"internalType": "string",
							"name": "_name",
							"type": "string"
						}
					],
					"name": "add_person",
					"outputs": [],
					"stateMutability": "nonpayable",
					"type": "function"
				},
				{
					"inputs": [],
					"name": "get_all_persons",
					"outputs": [
						{
							"components": [
								{
									"internalType": "uint256",
									"name": "favorite_number",
									"type": "uint256"
								},
								{
									"internalType": "string",
									"name": "favorite_name",
									"type": "string"
								}
							],
							"internalType": "struct SimpleStorage.People[]",
							"name": "",
							"type": "tuple[]"
						}
					],
					"stateMutability": "view",
					"type": "function"
				},
				{
					"inputs": [
						{
							"internalType": "uint256",
							"name": "",
							"type": "uint256"
						}
					],
					"name": "name_to_favorite_number",
					"outputs": [
						{
							"internalType": "string",
							"name": "",
							"type": "string"
						}
					],
					"stateMutability": "view",
					"type": "function"
				},
				{
					"inputs": [
						{
							"internalType": "uint256",
							"name": "",
							"type": "uint256"
						}
					],
					"name": "people",
					"outputs": [
						{
							"internalType": "uint256",
							"name": "favorite_number",
							"type": "uint256"
						},
						{
							"internalType": "string",
							"name": "favorite_name",
							"type": "string"
						}
					],
					"stateMutability": "view",
					"type": "function"
				},
				{
					"inputs": [],
					"name": "retrieve",
					"outputs": [
						{
							"internalType": "uint256",
							"name": "",
							"type": "uint256"
						}
					],
					"stateMutability": "view",
					"type": "function"
				},
				{
					"inputs": [
						{
							"internalType": "uint256",
							"name": "index",
							"type": "uint256"
						}
					],
					"name": "retrieve_person",
					"outputs": [
						{
							"components": [
								{
									"internalType": "uint256",
									"name": "favorite_number",
									"type": "uint256"
								},
								{
									"internalType": "string",
									"name": "favorite_name",
									"type": "string"
								}
							],
							"internalType": "struct SimpleStorage.People",
							"name": "",
							"type": "tuple"
						}
					],
					"stateMutability": "view",
					"type": "function"
				},
				{
					"inputs": [
						{
							"internalType": "uint256",
							"name": "_favorite_number",
							"type": "uint256"
						}
					],
					"name": "store",
					"outputs": [],
					"stateMutability": "nonpayable",
					"type": "function"
				}
			],
			"devdoc": {
				"kind": "dev",
				"methods": {},
				"version": 1
			},
			"evm": {
				"assembly": "    /* \"contracts/simple_storage.sol\":61:1646  contract SimpleStorage ... */\n  mstore(0x40, 0x80)\n  callvalue\n  dup1\n  iszero\n  tag_1\n  jumpi\n  0x00\n  dup1\n  revert\ntag_1:\n  pop\n  dataSize(sub_0)\n  dup1\n  dataOffset(sub_0)\n  0x00\n  codecopy\n  0x00\n  return\nstop\n\nsub_0: assembly {\n        /* \"contracts/simple_storage.sol\":61:1646  contract SimpleStorage ... */\n      mstore(0x40, 0x80)\n      callvalue\n      dup1\n      iszero\n      tag_1\n      jumpi\n      0x00\n      dup1\n      revert\n    tag_1:\n      pop\n      jumpi(tag_2, lt(calldatasize, 0x04))\n      shr(0xe0, calldataload(0x00))\n      dup1\n      0x6057361d\n      gt\n      tag_10\n      jumpi\n      dup1\n      0x6057361d\n      eq\n      tag_6\n      jumpi\n      dup1\n      0x85a2a5d4\n      eq\n      tag_7\n      jumpi\n      dup1\n      0x9e7a13ad\n      eq\n      tag_8\n      jumpi\n      dup1\n      0xe4a1b583\n      eq\n      tag_9\n      jumpi\n      jump(tag_2)\n    tag_10:\n      dup1\n      0x2e64cec1\n      eq\n      tag_3\n      jumpi\n      dup1\n      0x466748a2\n      eq\n      tag_4\n      jumpi\n      dup1\n      0x48bc14cf\n      eq\n      tag_5\n      jumpi\n    tag_2:\n      0x00\n      dup1\n      revert\n        /* \"contracts/simple_storage.sol\":794:886  function retrieve() public view returns(uint256)... */\n    tag_3:\n      tag_11\n      tag_12\n      jump\t// in\n    tag_11:\n      mload(0x40)\n      tag_13\n      swap2\n      swap1\n      tag_14\n      jump\t// in\n    tag_13:\n      mload(0x40)\n      dup1\n      swap2\n      sub\n      swap1\n      return\n        /* \"contracts/simple_storage.sol\":1138:1378  function add_person(uint256 _favorite_number, string memory _name) public... */\n    tag_4:\n      tag_15\n      0x04\n      dup1\n      calldatasize\n      sub\n      dup2\n      add\n      swap1\n      tag_16\n      swap2\n      swap1\n      tag_17\n      jump\t// in\n    tag_16:\n      tag_18\n      jump\t// in\n    tag_15:\n      stop\n        /* \"contracts/simple_storage.sol\":1545:1643  function get_all_persons() public view returns(People[] memory)... */\n    tag_5:\n      tag_19\n      tag_20\n      jump\t// in\n    tag_19:\n      mload(0x40)\n      tag_21\n      swap2\n      swap1\n      tag_22\n      jump\t// in\n    tag_21:\n      mload(0x40)\n      dup1\n      swap2\n      sub\n      swap1\n      return\n        /* \"contracts/simple_storage.sol\":544:647  function store(uint256 _favorite_number) public... */\n    tag_6:\n      tag_23\n      0x04\n      dup1\n      calldatasize\n      sub\n      dup2\n      add\n      swap1\n      tag_24\n      swap2\n      swap1\n      tag_25\n      jump\t// in\n    tag_24:\n      tag_26\n      jump\t// in\n    tag_23:\n      stop\n        /* \"contracts/simple_storage.sol\":1384:1539  function retrieve_person(uint256 index) public view returns(People memory)... */\n    tag_7:\n      tag_27\n      0x04\n      dup1\n      calldatasize\n      sub\n      dup2\n      add\n      swap1\n      tag_28\n      swap2\n      swap1\n      tag_25\n      jump\t// in\n    tag_28:\n      tag_29\n      jump\t// in\n    tag_27:\n      mload(0x40)\n      tag_30\n      swap2\n      swap1\n      tag_31\n      jump\t// in\n    tag_30:\n      mload(0x40)\n      dup1\n      swap2\n      sub\n      swap1\n      return\n        /* \"contracts/simple_storage.sol\":382:404  People[] public people */\n    tag_8:\n      tag_32\n      0x04\n      dup1\n      calldatasize\n      sub\n      dup2\n      add\n      swap1\n      tag_33\n      swap2\n      swap1\n      tag_25\n      jump\t// in\n    tag_33:\n      tag_34\n      jump\t// in\n    tag_32:\n      mload(0x40)\n      tag_35\n      swap3\n      swap2\n      swap1\n      tag_36\n      jump\t// in\n    tag_35:\n      mload(0x40)\n      dup1\n      swap2\n      sub\n      swap1\n      return\n        /* \"contracts/simple_storage.sol\":410:467  mapping(uint256 => string) public name_to_favorite_number */\n    tag_9:\n      tag_37\n      0x04\n      dup1\n      calldatasize\n      sub\n      dup2\n      add\n      swap1\n      tag_38\n      swap2\n      swap1\n      tag_25\n      jump\t// in\n    tag_38:\n      tag_39\n      jump\t// in\n    tag_37:\n      mload(0x40)\n      tag_40\n      swap2\n      swap1\n      tag_41\n      jump\t// in\n    tag_40:\n      mload(0x40)\n      dup1\n      swap2\n      sub\n      swap1\n      return\n        /* \"contracts/simple_storage.sol\":794:886  function retrieve() public view returns(uint256)... */\n    tag_12:\n        /* \"contracts/simple_storage.sol\":834:841  uint256 */\n      0x00\n        /* \"contracts/simple_storage.sol\":864:879  favorite_number */\n      dup1\n      sload\n        /* \"contracts/simple_storage.sol\":857:879  return favorite_number */\n      swap1\n      pop\n        /* \"contracts/simple_storage.sol\":794:886  function retrieve() public view returns(uint256)... */\n      swap1\n      jump\t// out\n        /* \"contracts/simple_storage.sol\":1138:1378  function add_person(uint256 _favorite_number, string memory _name) public... */\n    tag_18:\n        /* \"contracts/simple_storage.sol\":1226:1246  People memory person */\n      0x00\n        /* \"contracts/simple_storage.sol\":1249:1280  People(_favorite_number, _name) */\n      mload(0x40)\n      dup1\n      0x40\n      add\n      0x40\n      mstore\n      dup1\n        /* \"contracts/simple_storage.sol\":1256:1272  _favorite_number */\n      dup5\n        /* \"contracts/simple_storage.sol\":1249:1280  People(_favorite_number, _name) */\n      dup2\n      mstore\n      0x20\n      add\n        /* \"contracts/simple_storage.sol\":1274:1279  _name */\n      dup4\n        /* \"contracts/simple_storage.sol\":1249:1280  People(_favorite_number, _name) */\n      dup2\n      mstore\n      pop\n        /* \"contracts/simple_storage.sol\":1226:1280  People memory person = People(_favorite_number, _name) */\n      swap1\n      pop\n        /* \"contracts/simple_storage.sol\":1290:1296  people */\n      0x02\n        /* \"contracts/simple_storage.sol\":1302:1308  person */\n      dup2\n        /* \"contracts/simple_storage.sol\":1290:1309  people.push(person) */\n      swap1\n      dup1\n      0x01\n      dup2\n      sload\n      add\n      dup1\n      dup3\n      sstore\n      dup1\n      swap2\n      pop\n      pop\n      0x01\n      swap1\n      sub\n      swap1\n      0x00\n      mstore\n      keccak256(0x00, 0x20)\n      swap1\n      0x02\n      mul\n      add\n      0x00\n      swap1\n      swap2\n      swap1\n      swap2\n      swap1\n      swap2\n      pop\n      0x00\n      dup3\n      add\n      mload\n      dup2\n      0x00\n      add\n      sstore\n      0x20\n      dup3\n      add\n      mload\n      dup2\n      0x01\n      add\n      swap1\n      dup1\n      mload\n      swap1\n      0x20\n      add\n      swap1\n      tag_45\n      swap3\n      swap2\n      swap1\n      tag_46\n      jump\t// in\n    tag_45:\n      pop\n      pop\n      pop\n        /* \"contracts/simple_storage.sol\":1216:1378  {... */\n      pop\n        /* \"contracts/simple_storage.sol\":1138:1378  function add_person(uint256 _favorite_number, string memory _name) public... */\n      pop\n      pop\n      jump\t// out\n        /* \"contracts/simple_storage.sol\":1545:1643  function get_all_persons() public view returns(People[] memory)... */\n    tag_20:\n        /* \"contracts/simple_storage.sol\":1592:1607  People[] memory */\n      0x60\n        /* \"contracts/simple_storage.sol\":1630:1636  people */\n      0x02\n        /* \"contracts/simple_storage.sol\":1623:1636  return people */\n      dup1\n      sload\n      dup1\n      0x20\n      mul\n      0x20\n      add\n      mload(0x40)\n      swap1\n      dup2\n      add\n      0x40\n      mstore\n      dup1\n      swap3\n      swap2\n      swap1\n      dup2\n      dup2\n      mstore\n      0x20\n      add\n      0x00\n      swap1\n    tag_48:\n      dup3\n      dup3\n      lt\n      iszero\n      tag_49\n      jumpi\n      dup4\n      dup3\n      swap1\n      0x00\n      mstore\n      keccak256(0x00, 0x20)\n      swap1\n      0x02\n      mul\n      add\n      mload(0x40)\n      dup1\n      0x40\n      add\n      0x40\n      mstore\n      swap1\n      dup2\n      0x00\n      dup3\n      add\n      sload\n      dup2\n      mstore\n      0x20\n      add\n      0x01\n      dup3\n      add\n      dup1\n      sload\n      tag_51\n      swap1\n      tag_52\n      jump\t// in\n    tag_51:\n      dup1\n      0x1f\n      add\n      0x20\n      dup1\n      swap2\n      div\n      mul\n      0x20\n      add\n      mload(0x40)\n      swap1\n      dup2\n      add\n      0x40\n      mstore\n      dup1\n      swap3\n      swap2\n      swap1\n      dup2\n      dup2\n      mstore\n      0x20\n      add\n      dup3\n      dup1\n      sload\n      tag_53\n      swap1\n      tag_52\n      jump\t// in\n    tag_53:\n      dup1\n      iszero\n      tag_54\n      jumpi\n      dup1\n      0x1f\n      lt\n      tag_55\n      jumpi\n      0x0100\n      dup1\n      dup4\n      sload\n      div\n      mul\n      dup4\n      mstore\n      swap2\n      0x20\n      add\n      swap2\n      jump(tag_54)\n    tag_55:\n      dup3\n      add\n      swap2\n      swap1\n      0x00\n      mstore\n      keccak256(0x00, 0x20)\n      swap1\n    tag_56:\n      dup2\n      sload\n      dup2\n      mstore\n      swap1\n      0x01\n      add\n      swap1\n      0x20\n      add\n      dup1\n      dup4\n      gt\n      tag_56\n      jumpi\n      dup3\n      swap1\n      sub\n      0x1f\n      and\n      dup3\n      add\n      swap2\n    tag_54:\n      pop\n      pop\n      pop\n      pop\n      pop\n      dup2\n      mstore\n      pop\n      pop\n      dup2\n      mstore\n      0x20\n      add\n      swap1\n      0x01\n      add\n      swap1\n      jump(tag_48)\n    tag_49:\n      pop\n      pop\n      pop\n      pop\n      swap1\n      pop\n        /* \"contracts/simple_storage.sol\":1545:1643  function get_all_persons() public view returns(People[] memory)... */\n      swap1\n      jump\t// out\n        /* \"contracts/simple_storage.sol\":544:647  function store(uint256 _favorite_number) public... */\n    tag_26:\n        /* \"contracts/simple_storage.sol\":624:640  _favorite_number */\n      dup1\n        /* \"contracts/simple_storage.sol\":606:621  favorite_number */\n      0x00\n        /* \"contracts/simple_storage.sol\":606:640  favorite_number = _favorite_number */\n      dup2\n      swap1\n      sstore\n      pop\n        /* \"contracts/simple_storage.sol\":544:647  function store(uint256 _favorite_number) public... */\n      pop\n      jump\t// out\n        /* \"contracts/simple_storage.sol\":1384:1539  function retrieve_person(uint256 index) public view returns(People memory)... */\n    tag_29:\n        /* \"contracts/simple_storage.sol\":1444:1457  People memory */\n      tag_58\n      tag_59\n      jump\t// in\n    tag_58:\n        /* \"contracts/simple_storage.sol\":1473:1493  People memory person */\n      0x00\n        /* \"contracts/simple_storage.sol\":1496:1502  people */\n      0x02\n        /* \"contracts/simple_storage.sol\":1503:1508  index */\n      dup4\n        /* \"contracts/simple_storage.sol\":1496:1509  people[index] */\n      dup2\n      sload\n      dup2\n      lt\n      tag_61\n      jumpi\n      tag_62\n      tag_63\n      jump\t// in\n    tag_62:\n    tag_61:\n      swap1\n      0x00\n      mstore\n      keccak256(0x00, 0x20)\n      swap1\n      0x02\n      mul\n      add\n        /* \"contracts/simple_storage.sol\":1473:1509  People memory person = people[index] */\n      mload(0x40)\n      dup1\n      0x40\n      add\n      0x40\n      mstore\n      swap1\n      dup2\n      0x00\n      dup3\n      add\n      sload\n      dup2\n      mstore\n      0x20\n      add\n      0x01\n      dup3\n      add\n      dup1\n      sload\n      tag_65\n      swap1\n      tag_52\n      jump\t// in\n    tag_65:\n      dup1\n      0x1f\n      add\n      0x20\n      dup1\n      swap2\n      div\n      mul\n      0x20\n      add\n      mload(0x40)\n      swap1\n      dup2\n      add\n      0x40\n      mstore\n      dup1\n      swap3\n      swap2\n      swap1\n      dup2\n      dup2\n      mstore\n      0x20\n      add\n      dup3\n      dup1\n      sload\n      tag_66\n      swap1\n      tag_52\n      jump\t// in\n    tag_66:\n      dup1\n      iszero\n      tag_67\n      jumpi\n      dup1\n      0x1f\n      lt\n      tag_68\n      jumpi\n      0x0100\n      dup1\n      dup4\n      sload\n      div\n      mul\n      dup4\n      mstore\n      swap2\n      0x20\n      add\n      swap2\n      jump(tag_67)\n    tag_68:\n      dup3\n      add\n      swap2\n      swap1\n      0x00\n      mstore\n      keccak256(0x00, 0x20)\n      swap1\n    tag_69:\n      dup2\n      sload\n      dup2\n      mstore\n      swap1\n      0x01\n      add\n      swap1\n      0x20\n      add\n      dup1\n      dup4\n      gt\n      tag_69\n      jumpi\n      dup3\n      swap1\n      sub\n      0x1f\n      and\n      dup3\n      add\n      swap2\n    tag_67:\n      pop\n      pop\n      pop\n      pop\n      pop\n      dup2\n      mstore\n      pop\n      pop\n      swap1\n      pop\n        /* \"contracts/simple_storage.sol\":1526:1532  person */\n      dup1\n        /* \"contracts/simple_storage.sol\":1519:1532  return person */\n      swap2\n      pop\n      pop\n        /* \"contracts/simple_storage.sol\":1384:1539  function retrieve_person(uint256 index) public view returns(People memory)... */\n      swap2\n      swap1\n      pop\n      jump\t// out\n        /* \"contracts/simple_storage.sol\":382:404  People[] public people */\n    tag_34:\n      0x02\n      dup2\n      dup2\n      sload\n      dup2\n      lt\n      tag_70\n      jumpi\n      0x00\n      dup1\n      revert\n    tag_70:\n      swap1\n      0x00\n      mstore\n      keccak256(0x00, 0x20)\n      swap1\n      0x02\n      mul\n      add\n      0x00\n      swap2\n      pop\n      swap1\n      pop\n      dup1\n      0x00\n      add\n      sload\n      swap1\n      dup1\n      0x01\n      add\n      dup1\n      sload\n      tag_72\n      swap1\n      tag_52\n      jump\t// in\n    tag_72:\n      dup1\n      0x1f\n      add\n      0x20\n      dup1\n      swap2\n      div\n      mul\n      0x20\n      add\n      mload(0x40)\n      swap1\n      dup2\n      add\n      0x40\n      mstore\n      dup1\n      swap3\n      swap2\n      swap1\n      dup2\n      dup2\n      mstore\n      0x20\n      add\n      dup3\n      dup1\n      sload\n      tag_73\n      swap1\n      tag_52\n      jump\t// in\n    tag_73:\n      dup1\n      iszero\n      tag_74\n      jumpi\n      dup1\n      0x1f\n      lt\n      tag_75\n      jumpi\n      0x0100\n      dup1\n      dup4\n      sload\n      div\n      mul\n      dup4\n      mstore\n      swap2\n      0x20\n      add\n      swap2\n      jump(tag_74)\n    tag_75:\n      dup3\n      add\n      swap2\n      swap1\n      0x00\n      mstore\n      keccak256(0x00, 0x20)\n      swap1\n    tag_76:\n      dup2\n      sload\n      dup2\n      mstore\n      swap1\n      0x01\n      add\n      swap1\n      0x20\n      add\n      dup1\n      dup4\n      gt\n      tag_76\n      jumpi\n      dup3\n      swap1\n      sub\n      0x1f\n      and\n      dup3\n      add\n      swap2\n    tag_74:\n      pop\n      pop\n      pop\n      pop\n      pop\n      swap1\n      pop\n      dup3\n      jump\t// out\n        /* \"contracts/simple_storage.sol\":410:467  mapping(uint256 => string) public name_to_favorite_number */\n    tag_39:\n      mstore(0x20, 0x03)\n      dup1\n      0x00\n      mstore\n      keccak256(0x00, 0x40)\n      0x00\n      swap2\n      pop\n      swap1\n      pop\n      dup1\n      sload\n      tag_77\n      swap1\n      tag_52\n      jump\t// in\n    tag_77:\n      dup1\n      0x1f\n      add\n      0x20\n      dup1\n      swap2\n      div\n      mul\n      0x20\n      add\n      mload(0x40)\n      swap1\n      dup2\n      add\n      0x40\n      mstore\n      dup1\n      swap3\n      swap2\n      swap1\n      dup2\n      dup2\n      mstore\n      0x20\n      add\n      dup3\n      dup1\n      sload\n      tag_78\n      swap1\n      tag_52\n      jump\t// in\n    tag_78:\n      dup1\n      iszero\n      tag_79\n      jumpi\n      dup1\n      0x1f\n      lt\n      tag_80\n      jumpi\n      0x0100\n      dup1\n      dup4\n      sload\n      div\n      mul\n      dup4\n      mstore\n      swap2\n      0x20\n      add\n      swap2\n      jump(tag_79)\n    tag_80:\n      dup3\n      add\n      swap2\n      swap1\n      0x00\n      mstore\n      keccak256(0x00, 0x20)\n      swap1\n    tag_81:\n      dup2\n      sload\n      dup2\n      mstore\n      swap1\n      0x01\n      add\n      swap1\n      0x20\n      add\n      dup1\n      dup4\n      gt\n      tag_81\n      jumpi\n      dup3\n      swap1\n      sub\n      0x1f\n      and\n      dup3\n      add\n      swap2\n    tag_79:\n      pop\n      pop\n      pop\n      pop\n      pop\n      dup2\n      jump\t// out\n    tag_46:\n      dup3\n      dup1\n      sload\n      tag_82\n      swap1\n      tag_52\n      jump\t// in\n    tag_82:\n      swap1\n      0x00\n      mstore\n      keccak256(0x00, 0x20)\n      swap1\n      0x1f\n      add\n      0x20\n      swap1\n      div\n      dup2\n      add\n      swap3\n      dup3\n      tag_84\n      jumpi\n      0x00\n      dup6\n      sstore\n      jump(tag_83)\n    tag_84:\n      dup3\n      0x1f\n      lt\n      tag_85\n      jumpi\n      dup1\n      mload\n      not(0xff)\n      and\n      dup4\n      dup1\n      add\n      or\n      dup6\n      sstore\n      jump(tag_83)\n    tag_85:\n      dup3\n      dup1\n      add\n      0x01\n      add\n      dup6\n      sstore\n      dup3\n      iszero\n      tag_83\n      jumpi\n      swap2\n      dup3\n      add\n    tag_86:\n      dup3\n      dup2\n      gt\n      iszero\n      tag_87\n      jumpi\n      dup3\n      mload\n      dup3\n      sstore\n      swap2\n      0x20\n      add\n      swap2\n      swap1\n      0x01\n      add\n      swap1\n      jump(tag_86)\n    tag_87:\n    tag_83:\n      pop\n      swap1\n      pop\n      tag_88\n      swap2\n      swap1\n      tag_89\n      jump\t// in\n    tag_88:\n      pop\n      swap1\n      jump\t// out\n    tag_59:\n      mload(0x40)\n      dup1\n      0x40\n      add\n      0x40\n      mstore\n      dup1\n      0x00\n      dup2\n      mstore\n      0x20\n      add\n      0x60\n      dup2\n      mstore\n      pop\n      swap1\n      jump\t// out\n    tag_89:\n    tag_90:\n      dup1\n      dup3\n      gt\n      iszero\n      tag_91\n      jumpi\n      0x00\n      dup2\n      0x00\n      swap1\n      sstore\n      pop\n      0x01\n      add\n      jump(tag_90)\n    tag_91:\n      pop\n      swap1\n      jump\t// out\n        /* \"#utility.yul\":7:419   */\n    tag_93:\n        /* \"#utility.yul\":85:90   */\n      0x00\n        /* \"#utility.yul\":110:176   */\n      tag_95\n        /* \"#utility.yul\":126:175   */\n      tag_96\n        /* \"#utility.yul\":168:174   */\n      dup5\n        /* \"#utility.yul\":126:175   */\n      tag_97\n      jump\t// in\n    tag_96:\n        /* \"#utility.yul\":110:176   */\n      tag_98\n      jump\t// in\n    tag_95:\n        /* \"#utility.yul\":101:176   */\n      swap1\n      pop\n        /* \"#utility.yul\":199:205   */\n      dup3\n        /* \"#utility.yul\":192:197   */\n      dup2\n        /* \"#utility.yul\":185:206   */\n      mstore\n        /* \"#utility.yul\":237:241   */\n      0x20\n        /* \"#utility.yul\":230:235   */\n      dup2\n        /* \"#utility.yul\":226:242   */\n      add\n        /* \"#utility.yul\":275:278   */\n      dup5\n        /* \"#utility.yul\":266:272   */\n      dup5\n        /* \"#utility.yul\":261:264   */\n      dup5\n        /* \"#utility.yul\":257:273   */\n      add\n        /* \"#utility.yul\":254:279   */\n      gt\n        /* \"#utility.yul\":251:363   */\n      iszero\n      tag_99\n      jumpi\n        /* \"#utility.yul\":282:361   */\n      tag_100\n      tag_101\n      jump\t// in\n    tag_100:\n        /* \"#utility.yul\":251:363   */\n    tag_99:\n        /* \"#utility.yul\":372:413   */\n      tag_102\n        /* \"#utility.yul\":406:412   */\n      dup5\n        /* \"#utility.yul\":401:404   */\n      dup3\n        /* \"#utility.yul\":396:399   */\n      dup6\n        /* \"#utility.yul\":372:413   */\n      tag_103\n      jump\t// in\n    tag_102:\n        /* \"#utility.yul\":91:419   */\n      pop\n        /* \"#utility.yul\":7:419   */\n      swap4\n      swap3\n      pop\n      pop\n      pop\n      jump\t// out\n        /* \"#utility.yul\":439:779   */\n    tag_104:\n        /* \"#utility.yul\":495:500   */\n      0x00\n        /* \"#utility.yul\":544:547   */\n      dup3\n        /* \"#utility.yul\":537:541   */\n      0x1f\n        /* \"#utility.yul\":529:535   */\n      dup4\n        /* \"#utility.yul\":525:542   */\n      add\n        /* \"#utility.yul\":521:548   */\n      slt\n        /* \"#utility.yul\":511:633   */\n      tag_106\n      jumpi\n        /* \"#utility.yul\":552:631   */\n      tag_107\n      tag_108\n      jump\t// in\n    tag_107:\n        /* \"#utility.yul\":511:633   */\n    tag_106:\n        /* \"#utility.yul\":669:675   */\n      dup2\n        /* \"#utility.yul\":656:676   */\n      calldataload\n        /* \"#utility.yul\":694:773   */\n      tag_109\n        /* \"#utility.yul\":769:772   */\n      dup5\n        /* \"#utility.yul\":761:767   */\n      dup3\n        /* \"#utility.yul\":754:758   */\n      0x20\n        /* \"#utility.yul\":746:752   */\n      dup7\n        /* \"#utility.yul\":742:759   */\n      add\n        /* \"#utility.yul\":694:773   */\n      tag_93\n      jump\t// in\n    tag_109:\n        /* \"#utility.yul\":685:773   */\n      swap2\n      pop\n        /* \"#utility.yul\":501:779   */\n      pop\n        /* \"#utility.yul\":439:779   */\n      swap3\n      swap2\n      pop\n      pop\n      jump\t// out\n        /* \"#utility.yul\":785:924   */\n    tag_110:\n        /* \"#utility.yul\":831:836   */\n      0x00\n        /* \"#utility.yul\":869:875   */\n      dup2\n        /* \"#utility.yul\":856:876   */\n      calldataload\n        /* \"#utility.yul\":847:876   */\n      swap1\n      pop\n        /* \"#utility.yul\":885:918   */\n      tag_112\n        /* \"#utility.yul\":912:917   */\n      dup2\n        /* \"#utility.yul\":885:918   */\n      tag_113\n      jump\t// in\n    tag_112:\n        /* \"#utility.yul\":785:924   */\n      swap3\n      swap2\n      pop\n      pop\n      jump\t// out\n        /* \"#utility.yul\":930:1259   */\n    tag_25:\n        /* \"#utility.yul\":989:995   */\n      0x00\n        /* \"#utility.yul\":1038:1040   */\n      0x20\n        /* \"#utility.yul\":1026:1035   */\n      dup3\n        /* \"#utility.yul\":1017:1024   */\n      dup5\n        /* \"#utility.yul\":1013:1036   */\n      sub\n        /* \"#utility.yul\":1009:1041   */\n      slt\n        /* \"#utility.yul\":1006:1125   */\n      iszero\n      tag_115\n      jumpi\n        /* \"#utility.yul\":1044:1123   */\n      tag_116\n      tag_117\n      jump\t// in\n    tag_116:\n        /* \"#utility.yul\":1006:1125   */\n    tag_115:\n        /* \"#utility.yul\":1164:1165   */\n      0x00\n        /* \"#utility.yul\":1189:1242   */\n      tag_118\n        /* \"#utility.yul\":1234:1241   */\n      dup5\n        /* \"#utility.yul\":1225:1231   */\n      dup3\n        /* \"#utility.yul\":1214:1223   */\n      dup6\n        /* \"#utility.yul\":1210:1232   */\n      add\n        /* \"#utility.yul\":1189:1242   */\n      tag_110\n      jump\t// in\n    tag_118:\n        /* \"#utility.yul\":1179:1242   */\n      swap2\n      pop\n        /* \"#utility.yul\":1135:1252   */\n      pop\n        /* \"#utility.yul\":930:1259   */\n      swap3\n      swap2\n      pop\n      pop\n      jump\t// out\n        /* \"#utility.yul\":1265:1919   */\n    tag_17:\n        /* \"#utility.yul\":1343:1349   */\n      0x00\n        /* \"#utility.yul\":1351:1357   */\n      dup1\n        /* \"#utility.yul\":1400:1402   */\n      0x40\n        /* \"#utility.yul\":1388:1397   */\n      dup4\n        /* \"#utility.yul\":1379:1386   */\n      dup6\n        /* \"#utility.yul\":1375:1398   */\n      sub\n        /* \"#utility.yul\":1371:1403   */\n      slt\n        /* \"#utility.yul\":1368:1487   */\n      iszero\n      tag_120\n      jumpi\n        /* \"#utility.yul\":1406:1485   */\n      tag_121\n      tag_117\n      jump\t// in\n    tag_121:\n        /* \"#utility.yul\":1368:1487   */\n    tag_120:\n        /* \"#utility.yul\":1526:1527   */\n      0x00\n        /* \"#utility.yul\":1551:1604   */\n      tag_122\n        /* \"#utility.yul\":1596:1603   */\n      dup6\n        /* \"#utility.yul\":1587:1593   */\n      dup3\n        /* \"#utility.yul\":1576:1585   */\n      dup7\n        /* \"#utility.yul\":1572:1594   */\n      add\n        /* \"#utility.yul\":1551:1604   */\n      tag_110\n      jump\t// in\n    tag_122:\n        /* \"#utility.yul\":1541:1604   */\n      swap3\n      pop\n        /* \"#utility.yul\":1497:1614   */\n      pop\n        /* \"#utility.yul\":1681:1683   */\n      0x20\n        /* \"#utility.yul\":1670:1679   */\n      dup4\n        /* \"#utility.yul\":1666:1684   */\n      add\n        /* \"#utility.yul\":1653:1685   */\n      calldataload\n        /* \"#utility.yul\":1712:1730   */\n      0xffffffffffffffff\n        /* \"#utility.yul\":1704:1710   */\n      dup2\n        /* \"#utility.yul\":1701:1731   */\n      gt\n        /* \"#utility.yul\":1698:1815   */\n      iszero\n      tag_123\n      jumpi\n        /* \"#utility.yul\":1734:1813   */\n      tag_124\n      tag_125\n      jump\t// in\n    tag_124:\n        /* \"#utility.yul\":1698:1815   */\n    tag_123:\n        /* \"#utility.yul\":1839:1902   */\n      tag_126\n        /* \"#utility.yul\":1894:1901   */\n      dup6\n        /* \"#utility.yul\":1885:1891   */\n      dup3\n        /* \"#utility.yul\":1874:1883   */\n      dup7\n        /* \"#utility.yul\":1870:1892   */\n      add\n        /* \"#utility.yul\":1839:1902   */\n      tag_104\n      jump\t// in\n    tag_126:\n        /* \"#utility.yul\":1829:1902   */\n      swap2\n      pop\n        /* \"#utility.yul\":1624:1912   */\n      pop\n        /* \"#utility.yul\":1265:1919   */\n      swap3\n      pop\n      swap3\n      swap1\n      pop\n      jump\t// out\n        /* \"#utility.yul\":1925:2169   */\n    tag_127:\n        /* \"#utility.yul\":2038:2048   */\n      0x00\n        /* \"#utility.yul\":2073:2163   */\n      tag_129\n        /* \"#utility.yul\":2159:2162   */\n      dup4\n        /* \"#utility.yul\":2151:2157   */\n      dup4\n        /* \"#utility.yul\":2073:2163   */\n      tag_130\n      jump\t// in\n    tag_129:\n        /* \"#utility.yul\":2059:2163   */\n      swap1\n      pop\n        /* \"#utility.yul\":1925:2169   */\n      swap3\n      swap2\n      pop\n      pop\n      jump\t// out\n        /* \"#utility.yul\":2245:3332   */\n    tag_131:\n        /* \"#utility.yul\":2408:2411   */\n      0x00\n        /* \"#utility.yul\":2437:2513   */\n      tag_133\n        /* \"#utility.yul\":2507:2512   */\n      dup3\n        /* \"#utility.yul\":2437:2513   */\n      tag_134\n      jump\t// in\n    tag_133:\n        /* \"#utility.yul\":2529:2637   */\n      tag_135\n        /* \"#utility.yul\":2630:2636   */\n      dup2\n        /* \"#utility.yul\":2625:2628   */\n      dup6\n        /* \"#utility.yul\":2529:2637   */\n      tag_136\n      jump\t// in\n    tag_135:\n        /* \"#utility.yul\":2522:2637   */\n      swap4\n      pop\n        /* \"#utility.yul\":2663:2666   */\n      dup4\n        /* \"#utility.yul\":2708:2712   */\n      0x20\n        /* \"#utility.yul\":2700:2706   */\n      dup3\n        /* \"#utility.yul\":2696:2713   */\n      mul\n        /* \"#utility.yul\":2691:2694   */\n      dup6\n        /* \"#utility.yul\":2687:2714   */\n      add\n        /* \"#utility.yul\":2738:2816   */\n      tag_137\n        /* \"#utility.yul\":2810:2815   */\n      dup6\n        /* \"#utility.yul\":2738:2816   */\n      tag_138\n      jump\t// in\n    tag_137:\n        /* \"#utility.yul\":2839:2846   */\n      dup1\n        /* \"#utility.yul\":2870:2871   */\n      0x00\n        /* \"#utility.yul\":2855:3287   */\n    tag_139:\n        /* \"#utility.yul\":2880:2886   */\n      dup6\n        /* \"#utility.yul\":2877:2878   */\n      dup2\n        /* \"#utility.yul\":2874:2887   */\n      lt\n        /* \"#utility.yul\":2855:3287   */\n      iszero\n      tag_141\n      jumpi\n        /* \"#utility.yul\":2951:2960   */\n      dup5\n        /* \"#utility.yul\":2945:2949   */\n      dup5\n        /* \"#utility.yul\":2941:2961   */\n      sub\n        /* \"#utility.yul\":2936:2939   */\n      dup10\n        /* \"#utility.yul\":2929:2962   */\n      mstore\n        /* \"#utility.yul\":3002:3008   */\n      dup2\n        /* \"#utility.yul\":2996:3009   */\n      mload\n        /* \"#utility.yul\":3030:3138   */\n      tag_142\n        /* \"#utility.yul\":3133:3137   */\n      dup6\n        /* \"#utility.yul\":3118:3131   */\n      dup3\n        /* \"#utility.yul\":3030:3138   */\n      tag_127\n      jump\t// in\n    tag_142:\n        /* \"#utility.yul\":3022:3138   */\n      swap5\n      pop\n        /* \"#utility.yul\":3161:3243   */\n      tag_143\n        /* \"#utility.yul\":3236:3242   */\n      dup4\n        /* \"#utility.yul\":3161:3243   */\n      tag_144\n      jump\t// in\n    tag_143:\n        /* \"#utility.yul\":3151:3243   */\n      swap3\n      pop\n        /* \"#utility.yul\":3272:3276   */\n      0x20\n        /* \"#utility.yul\":3267:3270   */\n      dup11\n        /* \"#utility.yul\":3263:3277   */\n      add\n        /* \"#utility.yul\":3256:3277   */\n      swap10\n      pop\n        /* \"#utility.yul\":2915:3287   */\n      pop\n        /* \"#utility.yul\":2902:2903   */\n      0x01\n        /* \"#utility.yul\":2899:2900   */\n      dup2\n        /* \"#utility.yul\":2895:2904   */\n      add\n        /* \"#utility.yul\":2890:2904   */\n      swap1\n      pop\n        /* \"#utility.yul\":2855:3287   */\n      jump(tag_139)\n    tag_141:\n        /* \"#utility.yul\":2859:2873   */\n      pop\n        /* \"#utility.yul\":3303:3307   */\n      dup3\n        /* \"#utility.yul\":3296:3307   */\n      swap8\n      pop\n        /* \"#utility.yul\":3323:3326   */\n      dup8\n        /* \"#utility.yul\":3316:3326   */\n      swap6\n      pop\n        /* \"#utility.yul\":2413:3332   */\n      pop\n      pop\n      pop\n      pop\n      pop\n        /* \"#utility.yul\":2245:3332   */\n      swap3\n      swap2\n      pop\n      pop\n      jump\t// out\n        /* \"#utility.yul\":3338:3682   */\n    tag_145:\n        /* \"#utility.yul\":3416:3419   */\n      0x00\n        /* \"#utility.yul\":3444:3483   */\n      tag_147\n        /* \"#utility.yul\":3477:3482   */\n      dup3\n        /* \"#utility.yul\":3444:3483   */\n      tag_148\n      jump\t// in\n    tag_147:\n        /* \"#utility.yul\":3499:3560   */\n      tag_149\n        /* \"#utility.yul\":3553:3559   */\n      dup2\n        /* \"#utility.yul\":3548:3551   */\n      dup6\n        /* \"#utility.yul\":3499:3560   */\n      tag_150\n      jump\t// in\n    tag_149:\n        /* \"#utility.yul\":3492:3560   */\n      swap4\n      pop\n        /* \"#utility.yul\":3569:3621   */\n      tag_151\n        /* \"#utility.yul\":3614:3620   */\n      dup2\n        /* \"#utility.yul\":3609:3612   */\n      dup6\n        /* \"#utility.yul\":3602:3606   */\n      0x20\n        /* \"#utility.yul\":3595:3600   */\n      dup7\n        /* \"#utility.yul\":3591:3607   */\n      add\n        /* \"#utility.yul\":3569:3621   */\n      tag_152\n      jump\t// in\n    tag_151:\n        /* \"#utility.yul\":3646:3675   */\n      tag_153\n        /* \"#utility.yul\":3668:3674   */\n      dup2\n        /* \"#utility.yul\":3646:3675   */\n      tag_154\n      jump\t// in\n    tag_153:\n        /* \"#utility.yul\":3641:3644   */\n      dup5\n        /* \"#utility.yul\":3637:3676   */\n      add\n        /* \"#utility.yul\":3630:3676   */\n      swap2\n      pop\n        /* \"#utility.yul\":3420:3682   */\n      pop\n        /* \"#utility.yul\":3338:3682   */\n      swap3\n      swap2\n      pop\n      pop\n      jump\t// out\n        /* \"#utility.yul\":3688:4052   */\n    tag_155:\n        /* \"#utility.yul\":3776:3779   */\n      0x00\n        /* \"#utility.yul\":3804:3843   */\n      tag_157\n        /* \"#utility.yul\":3837:3842   */\n      dup3\n        /* \"#utility.yul\":3804:3843   */\n      tag_148\n      jump\t// in\n    tag_157:\n        /* \"#utility.yul\":3859:3930   */\n      tag_158\n        /* \"#utility.yul\":3923:3929   */\n      dup2\n        /* \"#utility.yul\":3918:3921   */\n      dup6\n        /* \"#utility.yul\":3859:3930   */\n      tag_159\n      jump\t// in\n    tag_158:\n        /* \"#utility.yul\":3852:3930   */\n      swap4\n      pop\n        /* \"#utility.yul\":3939:3991   */\n      tag_160\n        /* \"#utility.yul\":3984:3990   */\n      dup2\n        /* \"#utility.yul\":3979:3982   */\n      dup6\n        /* \"#utility.yul\":3972:3976   */\n      0x20\n        /* \"#utility.yul\":3965:3970   */\n      dup7\n        /* \"#utility.yul\":3961:3977   */\n      add\n        /* \"#utility.yul\":3939:3991   */\n      tag_152\n      jump\t// in\n    tag_160:\n        /* \"#utility.yul\":4016:4045   */\n      tag_161\n        /* \"#utility.yul\":4038:4044   */\n      dup2\n        /* \"#utility.yul\":4016:4045   */\n      tag_154\n      jump\t// in\n    tag_161:\n        /* \"#utility.yul\":4011:4014   */\n      dup5\n        /* \"#utility.yul\":4007:4046   */\n      add\n        /* \"#utility.yul\":4000:4046   */\n      swap2\n      pop\n        /* \"#utility.yul\":3780:4052   */\n      pop\n        /* \"#utility.yul\":3688:4052   */\n      swap3\n      swap2\n      pop\n      pop\n      jump\t// out\n        /* \"#utility.yul\":4124:4734   */\n    tag_130:\n        /* \"#utility.yul\":4227:4230   */\n      0x00\n        /* \"#utility.yul\":4263:4267   */\n      0x40\n        /* \"#utility.yul\":4258:4261   */\n      dup4\n        /* \"#utility.yul\":4254:4268   */\n      add\n        /* \"#utility.yul\":4361:4365   */\n      0x00\n        /* \"#utility.yul\":4354:4359   */\n      dup4\n        /* \"#utility.yul\":4350:4366   */\n      add\n        /* \"#utility.yul\":4344:4367   */\n      mload\n        /* \"#utility.yul\":4380:4443   */\n      tag_163\n        /* \"#utility.yul\":4437:4441   */\n      0x00\n        /* \"#utility.yul\":4432:4435   */\n      dup7\n        /* \"#utility.yul\":4428:4442   */\n      add\n        /* \"#utility.yul\":4414:4426   */\n      dup3\n        /* \"#utility.yul\":4380:4443   */\n      tag_164\n      jump\t// in\n    tag_163:\n        /* \"#utility.yul\":4278:4453   */\n      pop\n        /* \"#utility.yul\":4544:4548   */\n      0x20\n        /* \"#utility.yul\":4537:4542   */\n      dup4\n        /* \"#utility.yul\":4533:4549   */\n      add\n        /* \"#utility.yul\":4527:4550   */\n      mload\n        /* \"#utility.yul\":4597:4600   */\n      dup5\n        /* \"#utility.yul\":4591:4595   */\n      dup3\n        /* \"#utility.yul\":4587:4601   */\n      sub\n        /* \"#utility.yul\":4580:4584   */\n      0x20\n        /* \"#utility.yul\":4575:4578   */\n      dup7\n        /* \"#utility.yul\":4571:4585   */\n      add\n        /* \"#utility.yul\":4564:4602   */\n      mstore\n        /* \"#utility.yul\":4623:4696   */\n      tag_165\n        /* \"#utility.yul\":4691:4695   */\n      dup3\n        /* \"#utility.yul\":4677:4689   */\n      dup3\n        /* \"#utility.yul\":4623:4696   */\n      tag_145\n      jump\t// in\n    tag_165:\n        /* \"#utility.yul\":4615:4696   */\n      swap2\n      pop\n        /* \"#utility.yul\":4463:4707   */\n      pop\n        /* \"#utility.yul\":4724:4728   */\n      dup1\n        /* \"#utility.yul\":4717:4728   */\n      swap2\n      pop\n        /* \"#utility.yul\":4232:4734   */\n      pop\n        /* \"#utility.yul\":4124:4734   */\n      swap3\n      swap2\n      pop\n      pop\n      jump\t// out\n        /* \"#utility.yul\":4806:5426   */\n    tag_166:\n        /* \"#utility.yul\":4919:4922   */\n      0x00\n        /* \"#utility.yul\":4955:4959   */\n      0x40\n        /* \"#utility.yul\":4950:4953   */\n      dup4\n        /* \"#utility.yul\":4946:4960   */\n      add\n        /* \"#utility.yul\":5053:5057   */\n      0x00\n        /* \"#utility.yul\":5046:5051   */\n      dup4\n        /* \"#utility.yul\":5042:5058   */\n      add\n        /* \"#utility.yul\":5036:5059   */\n      mload\n        /* \"#utility.yul\":5072:5135   */\n      tag_168\n        /* \"#utility.yul\":5129:5133   */\n      0x00\n        /* \"#utility.yul\":5124:5127   */\n      dup7\n        /* \"#utility.yul\":5120:5134   */\n      add\n        /* \"#utility.yul\":5106:5118   */\n      dup3\n        /* \"#utility.yul\":5072:5135   */\n      tag_164\n      jump\t// in\n    tag_168:\n        /* \"#utility.yul\":4970:5145   */\n      pop\n        /* \"#utility.yul\":5236:5240   */\n      0x20\n        /* \"#utility.yul\":5229:5234   */\n      dup4\n        /* \"#utility.yul\":5225:5241   */\n      add\n        /* \"#utility.yul\":5219:5242   */\n      mload\n        /* \"#utility.yul\":5289:5292   */\n      dup5\n        /* \"#utility.yul\":5283:5287   */\n      dup3\n        /* \"#utility.yul\":5279:5293   */\n      sub\n        /* \"#utility.yul\":5272:5276   */\n      0x20\n        /* \"#utility.yul\":5267:5270   */\n      dup7\n        /* \"#utility.yul\":5263:5277   */\n      add\n        /* \"#utility.yul\":5256:5294   */\n      mstore\n        /* \"#utility.yul\":5315:5388   */\n      tag_169\n        /* \"#utility.yul\":5383:5387   */\n      dup3\n        /* \"#utility.yul\":5369:5381   */\n      dup3\n        /* \"#utility.yul\":5315:5388   */\n      tag_145\n      jump\t// in\n    tag_169:\n        /* \"#utility.yul\":5307:5388   */\n      swap2\n      pop\n        /* \"#utility.yul\":5155:5399   */\n      pop\n        /* \"#utility.yul\":5416:5420   */\n      dup1\n        /* \"#utility.yul\":5409:5420   */\n      swap2\n      pop\n        /* \"#utility.yul\":4924:5426   */\n      pop\n        /* \"#utility.yul\":4806:5426   */\n      swap3\n      swap2\n      pop\n      pop\n      jump\t// out\n        /* \"#utility.yul\":5432:5540   */\n    tag_164:\n        /* \"#utility.yul\":5509:5533   */\n      tag_171\n        /* \"#utility.yul\":5527:5532   */\n      dup2\n        /* \"#utility.yul\":5509:5533   */\n      tag_172\n      jump\t// in\n    tag_171:\n        /* \"#utility.yul\":5504:5507   */\n      dup3\n        /* \"#utility.yul\":5497:5534   */\n      mstore\n        /* \"#utility.yul\":5432:5540   */\n      pop\n      pop\n      jump\t// out\n        /* \"#utility.yul\":5546:5664   */\n    tag_173:\n        /* \"#utility.yul\":5633:5657   */\n      tag_175\n        /* \"#utility.yul\":5651:5656   */\n      dup2\n        /* \"#utility.yul\":5633:5657   */\n      tag_172\n      jump\t// in\n    tag_175:\n        /* \"#utility.yul\":5628:5631   */\n      dup3\n        /* \"#utility.yul\":5621:5658   */\n      mstore\n        /* \"#utility.yul\":5546:5664   */\n      pop\n      pop\n      jump\t// out\n        /* \"#utility.yul\":5670:6131   */\n    tag_22:\n        /* \"#utility.yul\":5857:5861   */\n      0x00\n        /* \"#utility.yul\":5895:5897   */\n      0x20\n        /* \"#utility.yul\":5884:5893   */\n      dup3\n        /* \"#utility.yul\":5880:5898   */\n      add\n        /* \"#utility.yul\":5872:5898   */\n      swap1\n      pop\n        /* \"#utility.yul\":5944:5953   */\n      dup2\n        /* \"#utility.yul\":5938:5942   */\n      dup2\n        /* \"#utility.yul\":5934:5954   */\n      sub\n        /* \"#utility.yul\":5930:5931   */\n      0x00\n        /* \"#utility.yul\":5919:5928   */\n      dup4\n        /* \"#utility.yul\":5915:5932   */\n      add\n        /* \"#utility.yul\":5908:5955   */\n      mstore\n        /* \"#utility.yul\":5972:6124   */\n      tag_177\n        /* \"#utility.yul\":6119:6123   */\n      dup2\n        /* \"#utility.yul\":6110:6116   */\n      dup5\n        /* \"#utility.yul\":5972:6124   */\n      tag_131\n      jump\t// in\n    tag_177:\n        /* \"#utility.yul\":5964:6124   */\n      swap1\n      pop\n        /* \"#utility.yul\":5670:6131   */\n      swap3\n      swap2\n      pop\n      pop\n      jump\t// out\n        /* \"#utility.yul\":6137:6450   */\n    tag_41:\n        /* \"#utility.yul\":6250:6254   */\n      0x00\n        /* \"#utility.yul\":6288:6290   */\n      0x20\n        /* \"#utility.yul\":6277:6286   */\n      dup3\n        /* \"#utility.yul\":6273:6291   */\n      add\n        /* \"#utility.yul\":6265:6291   */\n      swap1\n      pop\n        /* \"#utility.yul\":6337:6346   */\n      dup2\n        /* \"#utility.yul\":6331:6335   */\n      dup2\n        /* \"#utility.yul\":6327:6347   */\n      sub\n        /* \"#utility.yul\":6323:6324   */\n      0x00\n        /* \"#utility.yul\":6312:6321   */\n      dup4\n        /* \"#utility.yul\":6308:6325   */\n      add\n        /* \"#utility.yul\":6301:6348   */\n      mstore\n        /* \"#utility.yul\":6365:6443   */\n      tag_179\n        /* \"#utility.yul\":6438:6442   */\n      dup2\n        /* \"#utility.yul\":6429:6435   */\n      dup5\n        /* \"#utility.yul\":6365:6443   */\n      tag_155\n      jump\t// in\n    tag_179:\n        /* \"#utility.yul\":6357:6443   */\n      swap1\n      pop\n        /* \"#utility.yul\":6137:6450   */\n      swap3\n      swap2\n      pop\n      pop\n      jump\t// out\n        /* \"#utility.yul\":6456:6817   */\n    tag_31:\n        /* \"#utility.yul\":6593:6597   */\n      0x00\n        /* \"#utility.yul\":6631:6633   */\n      0x20\n        /* \"#utility.yul\":6620:6629   */\n      dup3\n        /* \"#utility.yul\":6616:6634   */\n      add\n        /* \"#utility.yul\":6608:6634   */\n      swap1\n      pop\n        /* \"#utility.yul\":6680:6689   */\n      dup2\n        /* \"#utility.yul\":6674:6678   */\n      dup2\n        /* \"#utility.yul\":6670:6690   */\n      sub\n        /* \"#utility.yul\":6666:6667   */\n      0x00\n        /* \"#utility.yul\":6655:6664   */\n      dup4\n        /* \"#utility.yul\":6651:6668   */\n      add\n        /* \"#utility.yul\":6644:6691   */\n      mstore\n        /* \"#utility.yul\":6708:6810   */\n      tag_181\n        /* \"#utility.yul\":6805:6809   */\n      dup2\n        /* \"#utility.yul\":6796:6802   */\n      dup5\n        /* \"#utility.yul\":6708:6810   */\n      tag_166\n      jump\t// in\n    tag_181:\n        /* \"#utility.yul\":6700:6810   */\n      swap1\n      pop\n        /* \"#utility.yul\":6456:6817   */\n      swap3\n      swap2\n      pop\n      pop\n      jump\t// out\n        /* \"#utility.yul\":6823:7045   */\n    tag_14:\n        /* \"#utility.yul\":6916:6920   */\n      0x00\n        /* \"#utility.yul\":6954:6956   */\n      0x20\n        /* \"#utility.yul\":6943:6952   */\n      dup3\n        /* \"#utility.yul\":6939:6957   */\n      add\n        /* \"#utility.yul\":6931:6957   */\n      swap1\n      pop\n        /* \"#utility.yul\":6967:7038   */\n      tag_183\n        /* \"#utility.yul\":7035:7036   */\n      0x00\n        /* \"#utility.yul\":7024:7033   */\n      dup4\n        /* \"#utility.yul\":7020:7037   */\n      add\n        /* \"#utility.yul\":7011:7017   */\n      dup5\n        /* \"#utility.yul\":6967:7038   */\n      tag_173\n      jump\t// in\n    tag_183:\n        /* \"#utility.yul\":6823:7045   */\n      swap3\n      swap2\n      pop\n      pop\n      jump\t// out\n        /* \"#utility.yul\":7051:7474   */\n    tag_36:\n        /* \"#utility.yul\":7192:7196   */\n      0x00\n        /* \"#utility.yul\":7230:7232   */\n      0x40\n        /* \"#utility.yul\":7219:7228   */\n      dup3\n        /* \"#utility.yul\":7215:7233   */\n      add\n        /* \"#utility.yul\":7207:7233   */\n      swap1\n      pop\n        /* \"#utility.yul\":7243:7314   */\n      tag_185\n        /* \"#utility.yul\":7311:7312   */\n      0x00\n        /* \"#utility.yul\":7300:7309   */\n      dup4\n        /* \"#utility.yul\":7296:7313   */\n      add\n        /* \"#utility.yul\":7287:7293   */\n      dup6\n        /* \"#utility.yul\":7243:7314   */\n      tag_173\n      jump\t// in\n    tag_185:\n        /* \"#utility.yul\":7361:7370   */\n      dup2\n        /* \"#utility.yul\":7355:7359   */\n      dup2\n        /* \"#utility.yul\":7351:7371   */\n      sub\n        /* \"#utility.yul\":7346:7348   */\n      0x20\n        /* \"#utility.yul\":7335:7344   */\n      dup4\n        /* \"#utility.yul\":7331:7349   */\n      add\n        /* \"#utility.yul\":7324:7372   */\n      mstore\n        /* \"#utility.yul\":7389:7467   */\n      tag_186\n        /* \"#utility.yul\":7462:7466   */\n      dup2\n        /* \"#utility.yul\":7453:7459   */\n      dup5\n        /* \"#utility.yul\":7389:7467   */\n      tag_155\n      jump\t// in\n    tag_186:\n        /* \"#utility.yul\":7381:7467   */\n      swap1\n      pop\n        /* \"#utility.yul\":7051:7474   */\n      swap4\n      swap3\n      pop\n      pop\n      pop\n      jump\t// out\n        /* \"#utility.yul\":7480:7609   */\n    tag_98:\n        /* \"#utility.yul\":7514:7520   */\n      0x00\n        /* \"#utility.yul\":7541:7561   */\n      tag_188\n      tag_189\n      jump\t// in\n    tag_188:\n        /* \"#utility.yul\":7531:7561   */\n      swap1\n      pop\n        /* \"#utility.yul\":7570:7603   */\n      tag_190\n        /* \"#utility.yul\":7598:7602   */\n      dup3\n        /* \"#utility.yul\":7590:7596   */\n      dup3\n        /* \"#utility.yul\":7570:7603   */\n      tag_191\n      jump\t// in\n    tag_190:\n        /* \"#utility.yul\":7480:7609   */\n      swap2\n      swap1\n      pop\n      jump\t// out\n        /* \"#utility.yul\":7615:7690   */\n    tag_189:\n        /* \"#utility.yul\":7648:7654   */\n      0x00\n        /* \"#utility.yul\":7681:7683   */\n      0x40\n        /* \"#utility.yul\":7675:7684   */\n      mload\n        /* \"#utility.yul\":7665:7684   */\n      swap1\n      pop\n        /* \"#utility.yul\":7615:7690   */\n      swap1\n      jump\t// out\n        /* \"#utility.yul\":7696:8004   */\n    tag_97:\n        /* \"#utility.yul\":7758:7762   */\n      0x00\n        /* \"#utility.yul\":7848:7866   */\n      0xffffffffffffffff\n        /* \"#utility.yul\":7840:7846   */\n      dup3\n        /* \"#utility.yul\":7837:7867   */\n      gt\n        /* \"#utility.yul\":7834:7890   */\n      iszero\n      tag_194\n      jumpi\n        /* \"#utility.yul\":7870:7888   */\n      tag_195\n      tag_196\n      jump\t// in\n    tag_195:\n        /* \"#utility.yul\":7834:7890   */\n    tag_194:\n        /* \"#utility.yul\":7908:7937   */\n      tag_197\n        /* \"#utility.yul\":7930:7936   */\n      dup3\n        /* \"#utility.yul\":7908:7937   */\n      tag_154\n      jump\t// in\n    tag_197:\n        /* \"#utility.yul\":7900:7937   */\n      swap1\n      pop\n        /* \"#utility.yul\":7992:7996   */\n      0x20\n        /* \"#utility.yul\":7986:7990   */\n      dup2\n        /* \"#utility.yul\":7982:7997   */\n      add\n        /* \"#utility.yul\":7974:7997   */\n      swap1\n      pop\n        /* \"#utility.yul\":7696:8004   */\n      swap2\n      swap1\n      pop\n      jump\t// out\n        /* \"#utility.yul\":8010:8164   */\n    tag_138:\n        /* \"#utility.yul\":8099:8103   */\n      0x00\n        /* \"#utility.yul\":8122:8125   */\n      dup2\n        /* \"#utility.yul\":8114:8125   */\n      swap1\n      pop\n        /* \"#utility.yul\":8152:8156   */\n      0x20\n        /* \"#utility.yul\":8147:8150   */\n      dup3\n        /* \"#utility.yul\":8143:8157   */\n      add\n        /* \"#utility.yul\":8135:8157   */\n      swap1\n      pop\n        /* \"#utility.yul\":8010:8164   */\n      swap2\n      swap1\n      pop\n      jump\t// out\n        /* \"#utility.yul\":8170:8306   */\n    tag_134:\n        /* \"#utility.yul\":8259:8265   */\n      0x00\n        /* \"#utility.yul\":8293:8298   */\n      dup2\n        /* \"#utility.yul\":8287:8299   */\n      mload\n        /* \"#utility.yul\":8277:8299   */\n      swap1\n      pop\n        /* \"#utility.yul\":8170:8306   */\n      swap2\n      swap1\n      pop\n      jump\t// out\n        /* \"#utility.yul\":8312:8411   */\n    tag_148:\n        /* \"#utility.yul\":8364:8370   */\n      0x00\n        /* \"#utility.yul\":8398:8403   */\n      dup2\n        /* \"#utility.yul\":8392:8404   */\n      mload\n        /* \"#utility.yul\":8382:8404   */\n      swap1\n      pop\n        /* \"#utility.yul\":8312:8411   */\n      swap2\n      swap1\n      pop\n      jump\t// out\n        /* \"#utility.yul\":8417:8552   */\n    tag_144:\n        /* \"#utility.yul\":8509:8513   */\n      0x00\n        /* \"#utility.yul\":8541:8545   */\n      0x20\n        /* \"#utility.yul\":8536:8539   */\n      dup3\n        /* \"#utility.yul\":8532:8546   */\n      add\n        /* \"#utility.yul\":8524:8546   */\n      swap1\n      pop\n        /* \"#utility.yul\":8417:8552   */\n      swap2\n      swap1\n      pop\n      jump\t// out\n        /* \"#utility.yul\":8558:8764   */\n    tag_136:\n        /* \"#utility.yul\":8679:8690   */\n      0x00\n        /* \"#utility.yul\":8713:8719   */\n      dup3\n        /* \"#utility.yul\":8708:8711   */\n      dup3\n        /* \"#utility.yul\":8701:8720   */\n      mstore\n        /* \"#utility.yul\":8753:8757   */\n      0x20\n        /* \"#utility.yul\":8748:8751   */\n      dup3\n        /* \"#utility.yul\":8744:8758   */\n      add\n        /* \"#utility.yul\":8729:8758   */\n      swap1\n      pop\n        /* \"#utility.yul\":8558:8764   */\n      swap3\n      swap2\n      pop\n      pop\n      jump\t// out\n        /* \"#utility.yul\":8770:8929   */\n    tag_150:\n        /* \"#utility.yul\":8844:8855   */\n      0x00\n        /* \"#utility.yul\":8878:8884   */\n      dup3\n        /* \"#utility.yul\":8873:8876   */\n      dup3\n        /* \"#utility.yul\":8866:8885   */\n      mstore\n        /* \"#utility.yul\":8918:8922   */\n      0x20\n        /* \"#utility.yul\":8913:8916   */\n      dup3\n        /* \"#utility.yul\":8909:8923   */\n      add\n        /* \"#utility.yul\":8894:8923   */\n      swap1\n      pop\n        /* \"#utility.yul\":8770:8929   */\n      swap3\n      swap2\n      pop\n      pop\n      jump\t// out\n        /* \"#utility.yul\":8935:9104   */\n    tag_159:\n        /* \"#utility.yul\":9019:9030   */\n      0x00\n        /* \"#utility.yul\":9053:9059   */\n      dup3\n        /* \"#utility.yul\":9048:9051   */\n      dup3\n        /* \"#utility.yul\":9041:9060   */\n      mstore\n        /* \"#utility.yul\":9093:9097   */\n      0x20\n        /* \"#utility.yul\":9088:9091   */\n      dup3\n        /* \"#utility.yul\":9084:9098   */\n      add\n        /* \"#utility.yul\":9069:9098   */\n      swap1\n      pop\n        /* \"#utility.yul\":8935:9104   */\n      swap3\n      swap2\n      pop\n      pop\n      jump\t// out\n        /* \"#utility.yul\":9110:9187   */\n    tag_172:\n        /* \"#utility.yul\":9147:9154   */\n      0x00\n        /* \"#utility.yul\":9176:9181   */\n      dup2\n        /* \"#utility.yul\":9165:9181   */\n      swap1\n      pop\n        /* \"#utility.yul\":9110:9187   */\n      swap2\n      swap1\n      pop\n      jump\t// out\n        /* \"#utility.yul\":9193:9347   */\n    tag_103:\n        /* \"#utility.yul\":9277:9283   */\n      dup3\n        /* \"#utility.yul\":9272:9275   */\n      dup2\n        /* \"#utility.yul\":9267:9270   */\n      dup4\n        /* \"#utility.yul\":9254:9284   */\n      calldatacopy\n        /* \"#utility.yul\":9339:9340   */\n      0x00\n        /* \"#utility.yul\":9330:9336   */\n      dup4\n        /* \"#utility.yul\":9325:9328   */\n      dup4\n        /* \"#utility.yul\":9321:9337   */\n      add\n        /* \"#utility.yul\":9314:9341   */\n      mstore\n        /* \"#utility.yul\":9193:9347   */\n      pop\n      pop\n      pop\n      jump\t// out\n        /* \"#utility.yul\":9353:9660   */\n    tag_152:\n        /* \"#utility.yul\":9421:9422   */\n      0x00\n        /* \"#utility.yul\":9431:9544   */\n    tag_208:\n        /* \"#utility.yul\":9445:9451   */\n      dup4\n        /* \"#utility.yul\":9442:9443   */\n      dup2\n        /* \"#utility.yul\":9439:9452   */\n      lt\n        /* \"#utility.yul\":9431:9544   */\n      iszero\n      tag_210\n      jumpi\n        /* \"#utility.yul\":9530:9531   */\n      dup1\n        /* \"#utility.yul\":9525:9528   */\n      dup3\n        /* \"#utility.yul\":9521:9532   */\n      add\n        /* \"#utility.yul\":9515:9533   */\n      mload\n        /* \"#utility.yul\":9511:9512   */\n      dup2\n        /* \"#utility.yul\":9506:9509   */\n      dup5\n        /* \"#utility.yul\":9502:9513   */\n      add\n        /* \"#utility.yul\":9495:9534   */\n      mstore\n        /* \"#utility.yul\":9467:9469   */\n      0x20\n        /* \"#utility.yul\":9464:9465   */\n      dup2\n        /* \"#utility.yul\":9460:9470   */\n      add\n        /* \"#utility.yul\":9455:9470   */\n      swap1\n      pop\n        /* \"#utility.yul\":9431:9544   */\n      jump(tag_208)\n    tag_210:\n        /* \"#utility.yul\":9562:9568   */\n      dup4\n        /* \"#utility.yul\":9559:9560   */\n      dup2\n        /* \"#utility.yul\":9556:9569   */\n      gt\n        /* \"#utility.yul\":9553:9654   */\n      iszero\n      tag_211\n      jumpi\n        /* \"#utility.yul\":9642:9643   */\n      0x00\n        /* \"#utility.yul\":9633:9639   */\n      dup5\n        /* \"#utility.yul\":9628:9631   */\n      dup5\n        /* \"#utility.yul\":9624:9640   */\n      add\n        /* \"#utility.yul\":9617:9644   */\n      mstore\n        /* \"#utility.yul\":9553:9654   */\n    tag_211:\n        /* \"#utility.yul\":9402:9660   */\n      pop\n        /* \"#utility.yul\":9353:9660   */\n      pop\n      pop\n      pop\n      jump\t// out\n        /* \"#utility.yul\":9666:9986   */\n    tag_52:\n        /* \"#utility.yul\":9710:9716   */\n      0x00\n        /* \"#utility.yul\":9747:9748   */\n      0x02\n        /* \"#utility.yul\":9741:9745   */\n      dup3\n        /* \"#utility.yul\":9737:9749   */\n      div\n        /* \"#utility.yul\":9727:9749   */\n      swap1\n      pop\n        /* \"#utility.yul\":9794:9795   */\n      0x01\n        /* \"#utility.yul\":9788:9792   */\n      dup3\n        /* \"#utility.yul\":9784:9796   */\n      and\n        /* \"#utility.yul\":9815:9833   */\n      dup1\n        /* \"#utility.yul\":9805:9886   */\n      tag_213\n      jumpi\n        /* \"#utility.yul\":9871:9875   */\n      0x7f\n        /* \"#utility.yul\":9863:9869   */\n      dup3\n        /* \"#utility.yul\":9859:9876   */\n      and\n        /* \"#utility.yul\":9849:9876   */\n      swap2\n      pop\n        /* \"#utility.yul\":9805:9886   */\n    tag_213:\n        /* \"#utility.yul\":9933:9935   */\n      0x20\n        /* \"#utility.yul\":9925:9931   */\n      dup3\n        /* \"#utility.yul\":9922:9936   */\n      lt\n        /* \"#utility.yul\":9902:9920   */\n      dup2\n        /* \"#utility.yul\":9899:9937   */\n      eq\n        /* \"#utility.yul\":9896:9980   */\n      iszero\n      tag_214\n      jumpi\n        /* \"#utility.yul\":9952:9970   */\n      tag_215\n      tag_216\n      jump\t// in\n    tag_215:\n        /* \"#utility.yul\":9896:9980   */\n    tag_214:\n        /* \"#utility.yul\":9717:9986   */\n      pop\n        /* \"#utility.yul\":9666:9986   */\n      swap2\n      swap1\n      pop\n      jump\t// out\n        /* \"#utility.yul\":9992:10273   */\n    tag_191:\n        /* \"#utility.yul\":10075:10102   */\n      tag_218\n        /* \"#utility.yul\":10097:10101   */\n      dup3\n        /* \"#utility.yul\":10075:10102   */\n      tag_154\n      jump\t// in\n    tag_218:\n        /* \"#utility.yul\":10067:10073   */\n      dup2\n        /* \"#utility.yul\":10063:10103   */\n      add\n        /* \"#utility.yul\":10205:10211   */\n      dup2\n        /* \"#utility.yul\":10193:10203   */\n      dup2\n        /* \"#utility.yul\":10190:10212   */\n      lt\n        /* \"#utility.yul\":10169:10187   */\n      0xffffffffffffffff\n        /* \"#utility.yul\":10157:10167   */\n      dup3\n        /* \"#utility.yul\":10154:10188   */\n      gt\n        /* \"#utility.yul\":10151:10213   */\n      or\n        /* \"#utility.yul\":10148:10236   */\n      iszero\n      tag_219\n      jumpi\n        /* \"#utility.yul\":10216:10234   */\n      tag_220\n      tag_196\n      jump\t// in\n    tag_220:\n        /* \"#utility.yul\":10148:10236   */\n    tag_219:\n        /* \"#utility.yul\":10256:10266   */\n      dup1\n        /* \"#utility.yul\":10252:10254   */\n      0x40\n        /* \"#utility.yul\":10245:10267   */\n      mstore\n        /* \"#utility.yul\":10035:10273   */\n      pop\n        /* \"#utility.yul\":9992:10273   */\n      pop\n      pop\n      jump\t// out\n        /* \"#utility.yul\":10279:10459   */\n    tag_216:\n        /* \"#utility.yul\":10327:10404   */\n      0x4e487b7100000000000000000000000000000000000000000000000000000000\n        /* \"#utility.yul\":10324:10325   */\n      0x00\n        /* \"#utility.yul\":10317:10405   */\n      mstore\n        /* \"#utility.yul\":10424:10428   */\n      0x22\n        /* \"#utility.yul\":10421:10422   */\n      0x04\n        /* \"#utility.yul\":10414:10429   */\n      mstore\n        /* \"#utility.yul\":10448:10452   */\n      0x24\n        /* \"#utility.yul\":10445:10446   */\n      0x00\n        /* \"#utility.yul\":10438:10453   */\n      revert\n        /* \"#utility.yul\":10465:10645   */\n    tag_63:\n        /* \"#utility.yul\":10513:10590   */\n      0x4e487b7100000000000000000000000000000000000000000000000000000000\n        /* \"#utility.yul\":10510:10511   */\n      0x00\n        /* \"#utility.yul\":10503:10591   */\n      mstore\n        /* \"#utility.yul\":10610:10614   */\n      0x32\n        /* \"#utility.yul\":10607:10608   */\n      0x04\n        /* \"#utility.yul\":10600:10615   */\n      mstore\n        /* \"#utility.yul\":10634:10638   */\n      0x24\n        /* \"#utility.yul\":10631:10632   */\n      0x00\n        /* \"#utility.yul\":10624:10639   */\n      revert\n        /* \"#utility.yul\":10651:10831   */\n    tag_196:\n        /* \"#utility.yul\":10699:10776   */\n      0x4e487b7100000000000000000000000000000000000000000000000000000000\n        /* \"#utility.yul\":10696:10697   */\n      0x00\n        /* \"#utility.yul\":10689:10777   */\n      mstore\n        /* \"#utility.yul\":10796:10800   */\n      0x41\n        /* \"#utility.yul\":10793:10794   */\n      0x04\n        /* \"#utility.yul\":10786:10801   */\n      mstore\n        /* \"#utility.yul\":10820:10824   */\n      0x24\n        /* \"#utility.yul\":10817:10818   */\n      0x00\n        /* \"#utility.yul\":10810:10825   */\n      revert\n        /* \"#utility.yul\":10837:10954   */\n    tag_108:\n        /* \"#utility.yul\":10946:10947   */\n      0x00\n        /* \"#utility.yul\":10943:10944   */\n      dup1\n        /* \"#utility.yul\":10936:10948   */\n      revert\n        /* \"#utility.yul\":10960:11077   */\n    tag_101:\n        /* \"#utility.yul\":11069:11070   */\n      0x00\n        /* \"#utility.yul\":11066:11067   */\n      dup1\n        /* \"#utility.yul\":11059:11071   */\n      revert\n        /* \"#utility.yul\":11083:11200   */\n    tag_125:\n        /* \"#utility.yul\":11192:11193   */\n      0x00\n        /* \"#utility.yul\":11189:11190   */\n      dup1\n        /* \"#utility.yul\":11182:11194   */\n      revert\n        /* \"#utility.yul\":11206:11323   */\n    tag_117:\n        /* \"#utility.yul\":11315:11316   */\n      0x00\n        /* \"#utility.yul\":11312:11313   */\n      dup1\n        /* \"#utility.yul\":11305:11317   */\n      revert\n        /* \"#utility.yul\":11329:11431   */\n    tag_154:\n        /* \"#utility.yul\":11370:11376   */\n      0x00\n        /* \"#utility.yul\":11421:11423   */\n      0x1f\n        /* \"#utility.yul\":11417:11424   */\n      not\n        /* \"#utility.yul\":11412:11414   */\n      0x1f\n        /* \"#utility.yul\":11405:11410   */\n      dup4\n        /* \"#utility.yul\":11401:11415   */\n      add\n        /* \"#utility.yul\":11397:11425   */\n      and\n        /* \"#utility.yul\":11387:11425   */\n      swap1\n      pop\n        /* \"#utility.yul\":11329:11431   */\n      swap2\n      swap1\n      pop\n      jump\t// out\n        /* \"#utility.yul\":11437:11559   */\n    tag_113:\n        /* \"#utility.yul\":11510:11534   */\n      tag_230\n        /* \"#utility.yul\":11528:11533   */\n      dup2\n        /* \"#utility.yul\":11510:11534   */\n      tag_172\n      jump\t// in\n    tag_230:\n        /* \"#utility.yul\":11503:11508   */\n      dup2\n        /* \"#utility.yul\":11500:11535   */\n      eq\n        /* \"#utility.yul\":11490:11553   */\n      tag_231\n      jumpi\n        /* \"#utility.yul\":11549:11550   */\n      0x00\n        /* \"#utility.yul\":11546:11547   */\n      dup1\n        /* \"#utility.yul\":11539:11551   */\n      revert\n        /* \"#utility.yul\":11490:11553   */\n    tag_231:\n        /* \"#utility.yul\":11437:11559   */\n      pop\n      jump\t// out\n\n    auxdata: 0xa2646970667358221220b1541bd1ef1c0f5c0b32d5791e8c104f3fce448408ad8c505e8d54763568088264736f6c63430008070033\n}\n",
				"bytecode": {
					"linkReferences": {},
					"object": "608060405234801561001057600080fd5b50610bbb806100206000396000f3fe608060405234801561001057600080fd5b506004361061007d5760003560e01c80636057361d1161005b5780636057361d146100da57806385a2a5d4146100f65780639e7a13ad14610126578063e4a1b583146101575761007d565b80632e64cec114610082578063466748a2146100a057806348bc14cf146100bc575b600080fd5b61008a610187565b6040516100979190610906565b60405180910390f35b6100ba60048036038101906100b591906106b1565b610190565b005b6100c4610203565b6040516100d191906108a0565b60405180910390f35b6100f460048036038101906100ef9190610684565b6102fe565b005b610110600480360381019061010b9190610684565b610308565b60405161011d91906108e4565b60405180910390f35b610140600480360381019061013b9190610684565b6103e6565b60405161014e929190610921565b60405180910390f35b610171600480360381019061016c9190610684565b6104a2565b60405161017e91906108c2565b60405180910390f35b60008054905090565b6000604051806040016040528084815260200183815250905060028190806001815401808255809150506001900390600052602060002090600202016000909190919091506000820151816000015560208201518160010190805190602001906101fb929190610542565b505050505050565b60606002805480602002602001604051908101604052809291908181526020016000905b828210156102f557838290600052602060002090600202016040518060400160405290816000820154815260200160018201805461026490610a59565b80601f016020809104026020016040519081016040528092919081815260200182805461029090610a59565b80156102dd5780601f106102b2576101008083540402835291602001916102dd565b820191906000526020600020905b8154815290600101906020018083116102c057829003601f168201915b50505050508152505081526020019060010190610227565b50505050905090565b8060008190555050565b6103106105c8565b60006002838154811061032657610325610aeb565b5b90600052602060002090600202016040518060400160405290816000820154815260200160018201805461035990610a59565b80601f016020809104026020016040519081016040528092919081815260200182805461038590610a59565b80156103d25780601f106103a7576101008083540402835291602001916103d2565b820191906000526020600020905b8154815290600101906020018083116103b557829003601f168201915b505050505081525050905080915050919050565b600281815481106103f657600080fd5b906000526020600020906002020160009150905080600001549080600101805461041f90610a59565b80601f016020809104026020016040519081016040528092919081815260200182805461044b90610a59565b80156104985780601f1061046d57610100808354040283529160200191610498565b820191906000526020600020905b81548152906001019060200180831161047b57829003601f168201915b5050505050905082565b600360205280600052604060002060009150905080546104c190610a59565b80601f01602080910402602001604051908101604052809291908181526020018280546104ed90610a59565b801561053a5780601f1061050f5761010080835404028352916020019161053a565b820191906000526020600020905b81548152906001019060200180831161051d57829003601f168201915b505050505081565b82805461054e90610a59565b90600052602060002090601f01602090048101928261057057600085556105b7565b82601f1061058957805160ff19168380011785556105b7565b828001600101855582156105b7579182015b828111156105b657825182559160200191906001019061059b565b5b5090506105c491906105e2565b5090565b604051806040016040528060008152602001606081525090565b5b808211156105fb5760008160009055506001016105e3565b5090565b600061061261060d84610976565b610951565b90508281526020810184848401111561062e5761062d610b4e565b5b610639848285610a17565b509392505050565b600082601f83011261065657610655610b49565b5b81356106668482602086016105ff565b91505092915050565b60008135905061067e81610b6e565b92915050565b60006020828403121561069a57610699610b58565b5b60006106a88482850161066f565b91505092915050565b600080604083850312156106c8576106c7610b58565b5b60006106d68582860161066f565b925050602083013567ffffffffffffffff8111156106f7576106f6610b53565b5b61070385828601610641565b9150509250929050565b60006107198383610808565b905092915050565b600061072c826109b7565b61073681856109da565b935083602082028501610748856109a7565b8060005b858110156107845784840389528151610765858261070d565b9450610770836109cd565b925060208a0199505060018101905061074c565b50829750879550505050505092915050565b60006107a1826109c2565b6107ab81856109eb565b93506107bb818560208601610a26565b6107c481610b5d565b840191505092915050565b60006107da826109c2565b6107e481856109fc565b93506107f4818560208601610a26565b6107fd81610b5d565b840191505092915050565b60006040830160008301516108206000860182610882565b50602083015184820360208601526108388282610796565b9150508091505092915050565b600060408301600083015161085d6000860182610882565b50602083015184820360208601526108758282610796565b9150508091505092915050565b61088b81610a0d565b82525050565b61089a81610a0d565b82525050565b600060208201905081810360008301526108ba8184610721565b905092915050565b600060208201905081810360008301526108dc81846107cf565b905092915050565b600060208201905081810360008301526108fe8184610845565b905092915050565b600060208201905061091b6000830184610891565b92915050565b60006040820190506109366000830185610891565b818103602083015261094881846107cf565b90509392505050565b600061095b61096c565b90506109678282610a8b565b919050565b6000604051905090565b600067ffffffffffffffff82111561099157610990610b1a565b5b61099a82610b5d565b9050602081019050919050565b6000819050602082019050919050565b600081519050919050565b600081519050919050565b6000602082019050919050565b600082825260208201905092915050565b600082825260208201905092915050565b600082825260208201905092915050565b6000819050919050565b82818337600083830152505050565b60005b83811015610a44578082015181840152602081019050610a29565b83811115610a53576000848401525b50505050565b60006002820490506001821680610a7157607f821691505b60208210811415610a8557610a84610abc565b5b50919050565b610a9482610b5d565b810181811067ffffffffffffffff82111715610ab357610ab2610b1a565b5b80604052505050565b7f4e487b7100000000000000000000000000000000000000000000000000000000600052602260045260246000fd5b7f4e487b7100000000000000000000000000000000000000000000000000000000600052603260045260246000fd5b7f4e487b7100000000000000000000000000000000000000000000000000000000600052604160045260246000fd5b600080fd5b600080fd5b600080fd5b600080fd5b6000601f19601f8301169050919050565b610b7781610a0d565b8114610b8257600080fd5b5056fea2646970667358221220b1541bd1ef1c0f5c0b32d5791e8c104f3fce448408ad8c505e8d54763568088264736f6c63430008070033",
					"opcodes": "PUSH1 0x80 PUSH1 0x40 MSTORE CALLVALUE DUP1 ISZERO PUSH2 0x10 JUMPI PUSH1 0x0 DUP1 REVERT JUMPDEST POP PUSH2 0xBBB DUP1 PUSH2 0x20 PUSH1 0x0 CODECOPY PUSH1 0x0 RETURN INVALID PUSH1 0x80 PUSH1 0x40 MSTORE CALLVALUE DUP1 ISZERO PUSH2 0x10 JUMPI PUSH1 0x0 DUP1 REVERT JUMPDEST POP PUSH1 0x4 CALLDATASIZE LT PUSH2 0x7D JUMPI PUSH1 0x0 CALLDATALOAD PUSH1 0xE0 SHR DUP1 PUSH4 0x6057361D GT PUSH2 0x5B JUMPI DUP1 PUSH4 0x6057361D EQ PUSH2 0xDA JUMPI DUP1 PUSH4 0x85A2A5D4 EQ PUSH2 0xF6 JUMPI DUP1 PUSH4 0x9E7A13AD EQ PUSH2 0x126 JUMPI DUP1 PUSH4 0xE4A1B583 EQ PUSH2 0x157 JUMPI PUSH2 0x7D JUMP JUMPDEST DUP1 PUSH4 0x2E64CEC1 EQ PUSH2 0x82 JUMPI DUP1 PUSH4 0x466748A2 EQ PUSH2 0xA0 JUMPI DUP1 PUSH4 0x48BC14CF EQ PUSH2 0xBC JUMPI JUMPDEST PUSH1 0x0 DUP1 REVERT JUMPDEST PUSH2 0x8A PUSH2 0x187 JUMP JUMPDEST PUSH1 0x40 MLOAD PUSH2 0x97 SWAP2 SWAP1 PUSH2 0x906 JUMP JUMPDEST PUSH1 0x40 MLOAD DUP1 SWAP2 SUB SWAP1 RETURN JUMPDEST PUSH2 0xBA PUSH1 0x4 DUP1 CALLDATASIZE SUB DUP2 ADD SWAP1 PUSH2 0xB5 SWAP2 SWAP1 PUSH2 0x6B1 JUMP JUMPDEST PUSH2 0x190 JUMP JUMPDEST STOP JUMPDEST PUSH2 0xC4 PUSH2 0x203 JUMP JUMPDEST PUSH1 0x40 MLOAD PUSH2 0xD1 SWAP2 SWAP1 PUSH2 0x8A0 JUMP JUMPDEST PUSH1 0x40 MLOAD DUP1 SWAP2 SUB SWAP1 RETURN JUMPDEST PUSH2 0xF4 PUSH1 0x4 DUP1 CALLDATASIZE SUB DUP2 ADD SWAP1 PUSH2 0xEF SWAP2 SWAP1 PUSH2 0x684 JUMP JUMPDEST PUSH2 0x2FE JUMP JUMPDEST STOP JUMPDEST PUSH2 0x110 PUSH1 0x4 DUP1 CALLDATASIZE SUB DUP2 ADD SWAP1 PUSH2 0x10B SWAP2 SWAP1 PUSH2 0x684 JUMP JUMPDEST PUSH2 0x308 JUMP JUMPDEST PUSH1 0x40 MLOAD PUSH2 0x11D SWAP2 SWAP1 PUSH2 0x8E4 JUMP JUMPDEST PUSH1 0x40 MLOAD DUP1 SWAP2 SUB SWAP1 RETURN JUMPDEST PUSH2 0x140 PUSH1 0x4 DUP1 CALLDATASIZE SUB DUP2 ADD SWAP1 PUSH2 0x13B SWAP2 SWAP1 PUSH2 0x684 JUMP JUMPDEST PUSH2 0x3E6 JUMP JUMPDEST PUSH1 0x40 MLOAD PUSH2 0x14E SWAP3 SWAP2 SWAP1 PUSH2 0x921 JUMP JUMPDEST PUSH1 0x40 MLOAD DUP1 SWAP2 SUB SWAP1 RETURN JUMPDEST PUSH2 0x171 PUSH1 0x4 DUP1 CALLDATASIZE SUB DUP2 ADD SWAP1 PUSH2 0x16C SWAP2 SWAP1 PUSH2 0x684 JUMP JUMPDEST PUSH2 0x4A2 JUMP JUMPDEST PUSH1 0x40 MLOAD PUSH2 0x17E SWAP2 SWAP1 PUSH2 0x8C2 JUMP JUMPDEST PUSH1 0x40 MLOAD DUP1 SWAP2 SUB SWAP1 RETURN JUMPDEST PUSH1 0x0 DUP1 SLOAD SWAP1 POP SWAP1 JUMP JUMPDEST PUSH1 0x0 PUSH1 0x40 MLOAD DUP1 PUSH1 0x40 ADD PUSH1 0x40 MSTORE DUP1 DUP5 DUP2 MSTORE PUSH1 0x20 ADD DUP4 DUP2 MSTORE POP SWAP1 POP PUSH1 0x2 DUP2 SWAP1 DUP1 PUSH1 0x1 DUP2 SLOAD ADD DUP1 DUP3 SSTORE DUP1 SWAP2 POP POP PUSH1 0x1 SWAP1 SUB SWAP1 PUSH1 0x0 MSTORE PUSH1 0x20 PUSH1 0x0 KECCAK256 SWAP1 PUSH1 0x2 MUL ADD PUSH1 0x0 SWAP1 SWAP2 SWAP1 SWAP2 SWAP1 SWAP2 POP PUSH1 0x0 DUP3 ADD MLOAD DUP2 PUSH1 0x0 ADD SSTORE PUSH1 0x20 DUP3 ADD MLOAD DUP2 PUSH1 0x1 ADD SWAP1 DUP1 MLOAD SWAP1 PUSH1 0x20 ADD SWAP1 PUSH2 0x1FB SWAP3 SWAP2 SWAP1 PUSH2 0x542 JUMP JUMPDEST POP POP POP POP POP POP JUMP JUMPDEST PUSH1 0x60 PUSH1 0x2 DUP1 SLOAD DUP1 PUSH1 0x20 MUL PUSH1 0x20 ADD PUSH1 0x40 MLOAD SWAP1 DUP2 ADD PUSH1 0x40 MSTORE DUP1 SWAP3 SWAP2 SWAP1 DUP2 DUP2 MSTORE PUSH1 0x20 ADD PUSH1 0x0 SWAP1 JUMPDEST DUP3 DUP3 LT ISZERO PUSH2 0x2F5 JUMPI DUP4 DUP3 SWAP1 PUSH1 0x0 MSTORE PUSH1 0x20 PUSH1 0x0 KECCAK256 SWAP1 PUSH1 0x2 MUL ADD PUSH1 0x40 MLOAD DUP1 PUSH1 0x40 ADD PUSH1 0x40 MSTORE SWAP1 DUP2 PUSH1 0x0 DUP3 ADD SLOAD DUP2 MSTORE PUSH1 0x20 ADD PUSH1 0x1 DUP3 ADD DUP1 SLOAD PUSH2 0x264 SWAP1 PUSH2 0xA59 JUMP JUMPDEST DUP1 PUSH1 0x1F ADD PUSH1 0x20 DUP1 SWAP2 DIV MUL PUSH1 0x20 ADD PUSH1 0x40 MLOAD SWAP1 DUP2 ADD PUSH1 0x40 MSTORE DUP1 SWAP3 SWAP2 SWAP1 DUP2 DUP2 MSTORE PUSH1 0x20 ADD DUP3 DUP1 SLOAD PUSH2 0x290 SWAP1 PUSH2 0xA59 JUMP JUMPDEST DUP1 ISZERO PUSH2 0x2DD JUMPI DUP1 PUSH1 0x1F LT PUSH2 0x2B2 JUMPI PUSH2 0x100 DUP1 DUP4 SLOAD DIV MUL DUP4 MSTORE SWAP2 PUSH1 0x20 ADD SWAP2 PUSH2 0x2DD JUMP JUMPDEST DUP3 ADD SWAP2 SWAP1 PUSH1 0x0 MSTORE PUSH1 0x20 PUSH1 0x0 KECCAK256 SWAP1 JUMPDEST DUP2 SLOAD DUP2 MSTORE SWAP1 PUSH1 0x1 ADD SWAP1 PUSH1 0x20 ADD DUP1 DUP4 GT PUSH2 0x2C0 JUMPI DUP3 SWAP1 SUB PUSH1 0x1F AND DUP3 ADD SWAP2 JUMPDEST POP POP POP POP POP DUP2 MSTORE POP POP DUP2 MSTORE PUSH1 0x20 ADD SWAP1 PUSH1 0x1 ADD SWAP1 PUSH2 0x227 JUMP JUMPDEST POP POP POP POP SWAP1 POP SWAP1 JUMP JUMPDEST DUP1 PUSH1 0x0 DUP2 SWAP1 SSTORE POP POP JUMP JUMPDEST PUSH2 0x310 PUSH2 0x5C8 JUMP JUMPDEST PUSH1 0x0 PUSH1 0x2 DUP4 DUP2 SLOAD DUP2 LT PUSH2 0x326 JUMPI PUSH2 0x325 PUSH2 0xAEB JUMP JUMPDEST JUMPDEST SWAP1 PUSH1 0x0 MSTORE PUSH1 0x20 PUSH1 0x0 KECCAK256 SWAP1 PUSH1 0x2 MUL ADD PUSH1 0x40 MLOAD DUP1 PUSH1 0x40 ADD PUSH1 0x40 MSTORE SWAP1 DUP2 PUSH1 0x0 DUP3 ADD SLOAD DUP2 MSTORE PUSH1 0x20 ADD PUSH1 0x1 DUP3 ADD DUP1 SLOAD PUSH2 0x359 SWAP1 PUSH2 0xA59 JUMP JUMPDEST DUP1 PUSH1 0x1F ADD PUSH1 0x20 DUP1 SWAP2 DIV MUL PUSH1 0x20 ADD PUSH1 0x40 MLOAD SWAP1 DUP2 ADD PUSH1 0x40 MSTORE DUP1 SWAP3 SWAP2 SWAP1 DUP2 DUP2 MSTORE PUSH1 0x20 ADD DUP3 DUP1 SLOAD PUSH2 0x385 SWAP1 PUSH2 0xA59 JUMP JUMPDEST DUP1 ISZERO PUSH2 0x3D2 JUMPI DUP1 PUSH1 0x1F LT PUSH2 0x3A7 JUMPI PUSH2 0x100 DUP1 DUP4 SLOAD DIV MUL DUP4 MSTORE SWAP2 PUSH1 0x20 ADD SWAP2 PUSH2 0x3D2 JUMP JUMPDEST DUP3 ADD SWAP2 SWAP1 PUSH1 0x0 MSTORE PUSH1 0x20 PUSH1 0x0 KECCAK256 SWAP1 JUMPDEST DUP2 SLOAD DUP2 MSTORE SWAP1 PUSH1 0x1 ADD SWAP1 PUSH1 0x20 ADD DUP1 DUP4 GT PUSH2 0x3B5 JUMPI DUP3 SWAP1 SUB PUSH1 0x1F AND DUP3 ADD SWAP2 JUMPDEST POP POP POP POP POP DUP2 MSTORE POP POP SWAP1 POP DUP1 SWAP2 POP POP SWAP2 SWAP1 POP JUMP JUMPDEST PUSH1 0x2 DUP2 DUP2 SLOAD DUP2 LT PUSH2 0x3F6 JUMPI PUSH1 0x0 DUP1 REVERT JUMPDEST SWAP1 PUSH1 0x0 MSTORE PUSH1 0x20 PUSH1 0x0 KECCAK256 SWAP1 PUSH1 0x2 MUL ADD PUSH1 0x0 SWAP2 POP SWAP1 POP DUP1 PUSH1 0x0 ADD SLOAD SWAP1 DUP1 PUSH1 0x1 ADD DUP1 SLOAD PUSH2 0x41F SWAP1 PUSH2 0xA59 JUMP JUMPDEST DUP1 PUSH1 0x1F ADD PUSH1 0x20 DUP1 SWAP2 DIV MUL PUSH1 0x20 ADD PUSH1 0x40 MLOAD SWAP1 DUP2 ADD PUSH1 0x40 MSTORE DUP1 SWAP3 SWAP2 SWAP1 DUP2 DUP2 MSTORE PUSH1 0x20 ADD DUP3 DUP1 SLOAD PUSH2 0x44B SWAP1 PUSH2 0xA59 JUMP JUMPDEST DUP1 ISZERO PUSH2 0x498 JUMPI DUP1 PUSH1 0x1F LT PUSH2 0x46D JUMPI PUSH2 0x100 DUP1 DUP4 SLOAD DIV MUL DUP4 MSTORE SWAP2 PUSH1 0x20 ADD SWAP2 PUSH2 0x498 JUMP JUMPDEST DUP3 ADD SWAP2 SWAP1 PUSH1 0x0 MSTORE PUSH1 0x20 PUSH1 0x0 KECCAK256 SWAP1 JUMPDEST DUP2 SLOAD DUP2 MSTORE SWAP1 PUSH1 0x1 ADD SWAP1 PUSH1 0x20 ADD DUP1 DUP4 GT PUSH2 0x47B JUMPI DUP3 SWAP1 SUB PUSH1 0x1F AND DUP3 ADD SWAP2 JUMPDEST POP POP POP POP POP SWAP1 POP DUP3 JUMP JUMPDEST PUSH1 0x3 PUSH1 0x20 MSTORE DUP1 PUSH1 0x0 MSTORE PUSH1 0x40 PUSH1 0x0 KECCAK256 PUSH1 0x0 SWAP2 POP SWAP1 POP DUP1 SLOAD PUSH2 0x4C1 SWAP1 PUSH2 0xA59 JUMP JUMPDEST DUP1 PUSH1 0x1F ADD PUSH1 0x20 DUP1 SWAP2 DIV MUL PUSH1 0x20 ADD PUSH1 0x40 MLOAD SWAP1 DUP2 ADD PUSH1 0x40 MSTORE DUP1 SWAP3 SWAP2 SWAP1 DUP2 DUP2 MSTORE PUSH1 0x20 ADD DUP3 DUP1 SLOAD PUSH2 0x4ED SWAP1 PUSH2 0xA59 JUMP JUMPDEST DUP1 ISZERO PUSH2 0x53A JUMPI DUP1 PUSH1 0x1F LT PUSH2 0x50F JUMPI PUSH2 0x100 DUP1 DUP4 SLOAD DIV MUL DUP4 MSTORE SWAP2 PUSH1 0x20 ADD SWAP2 PUSH2 0x53A JUMP JUMPDEST DUP3 ADD SWAP2 SWAP1 PUSH1 0x0 MSTORE PUSH1 0x20 PUSH1 0x0 KECCAK256 SWAP1 JUMPDEST DUP2 SLOAD DUP2 MSTORE SWAP1 PUSH1 0x1 ADD SWAP1 PUSH1 0x20 ADD DUP1 DUP4 GT PUSH2 0x51D JUMPI DUP3 SWAP1 SUB PUSH1 0x1F AND DUP3 ADD SWAP2 JUMPDEST POP POP POP POP POP DUP2 JUMP JUMPDEST DUP3 DUP1 SLOAD PUSH2 0x54E SWAP1 PUSH2 0xA59 JUMP JUMPDEST SWAP1 PUSH1 0x0 MSTORE PUSH1 0x20 PUSH1 0x0 KECCAK256 SWAP1 PUSH1 0x1F ADD PUSH1 0x20 SWAP1 DIV DUP2 ADD SWAP3 DUP3 PUSH2 0x570 JUMPI PUSH1 0x0 DUP6 SSTORE PUSH2 0x5B7 JUMP JUMPDEST DUP3 PUSH1 0x1F LT PUSH2 0x589 JUMPI DUP1 MLOAD PUSH1 0xFF NOT AND DUP4 DUP1 ADD OR DUP6 SSTORE PUSH2 0x5B7 JUMP JUMPDEST DUP3 DUP1 ADD PUSH1 0x1 ADD DUP6 SSTORE DUP3 ISZERO PUSH2 0x5B7 JUMPI SWAP2 DUP3 ADD JUMPDEST DUP3 DUP2 GT ISZERO PUSH2 0x5B6 JUMPI DUP3 MLOAD DUP3 SSTORE SWAP2 PUSH1 0x20 ADD SWAP2 SWAP1 PUSH1 0x1 ADD SWAP1 PUSH2 0x59B JUMP JUMPDEST JUMPDEST POP SWAP1 POP PUSH2 0x5C4 SWAP2 SWAP1 PUSH2 0x5E2 JUMP JUMPDEST POP SWAP1 JUMP JUMPDEST PUSH1 0x40 MLOAD DUP1 PUSH1 0x40 ADD PUSH1 0x40 MSTORE DUP1 PUSH1 0x0 DUP2 MSTORE PUSH1 0x20 ADD PUSH1 0x60 DUP2 MSTORE POP SWAP1 JUMP JUMPDEST JUMPDEST DUP1 DUP3 GT ISZERO PUSH2 0x5FB JUMPI PUSH1 0x0 DUP2 PUSH1 0x0 SWAP1 SSTORE POP PUSH1 0x1 ADD PUSH2 0x5E3 JUMP JUMPDEST POP SWAP1 JUMP JUMPDEST PUSH1 0x0 PUSH2 0x612 PUSH2 0x60D DUP5 PUSH2 0x976 JUMP JUMPDEST PUSH2 0x951 JUMP JUMPDEST SWAP1 POP DUP3 DUP2 MSTORE PUSH1 0x20 DUP2 ADD DUP5 DUP5 DUP5 ADD GT ISZERO PUSH2 0x62E JUMPI PUSH2 0x62D PUSH2 0xB4E JUMP JUMPDEST JUMPDEST PUSH2 0x639 DUP5 DUP3 DUP6 PUSH2 0xA17 JUMP JUMPDEST POP SWAP4 SWAP3 POP POP POP JUMP JUMPDEST PUSH1 0x0 DUP3 PUSH1 0x1F DUP4 ADD SLT PUSH2 0x656 JUMPI PUSH2 0x655 PUSH2 0xB49 JUMP JUMPDEST JUMPDEST DUP2 CALLDATALOAD PUSH2 0x666 DUP5 DUP3 PUSH1 0x20 DUP7 ADD PUSH2 0x5FF JUMP JUMPDEST SWAP2 POP POP SWAP3 SWAP2 POP POP JUMP JUMPDEST PUSH1 0x0 DUP2 CALLDATALOAD SWAP1 POP PUSH2 0x67E DUP2 PUSH2 0xB6E JUMP JUMPDEST SWAP3 SWAP2 POP POP JUMP JUMPDEST PUSH1 0x0 PUSH1 0x20 DUP3 DUP5 SUB SLT ISZERO PUSH2 0x69A JUMPI PUSH2 0x699 PUSH2 0xB58 JUMP JUMPDEST JUMPDEST PUSH1 0x0 PUSH2 0x6A8 DUP5 DUP3 DUP6 ADD PUSH2 0x66F JUMP JUMPDEST SWAP2 POP POP SWAP3 SWAP2 POP POP JUMP JUMPDEST PUSH1 0x0 DUP1 PUSH1 0x40 DUP4 DUP6 SUB SLT ISZERO PUSH2 0x6C8 JUMPI PUSH2 0x6C7 PUSH2 0xB58 JUMP JUMPDEST JUMPDEST PUSH1 0x0 PUSH2 0x6D6 DUP6 DUP3 DUP7 ADD PUSH2 0x66F JUMP JUMPDEST SWAP3 POP POP PUSH1 0x20 DUP4 ADD CALLDATALOAD PUSH8 0xFFFFFFFFFFFFFFFF DUP2 GT ISZERO PUSH2 0x6F7 JUMPI PUSH2 0x6F6 PUSH2 0xB53 JUMP JUMPDEST JUMPDEST PUSH2 0x703 DUP6 DUP3 DUP7 ADD PUSH2 0x641 JUMP JUMPDEST SWAP2 POP POP SWAP3 POP SWAP3 SWAP1 POP JUMP JUMPDEST PUSH1 0x0 PUSH2 0x719 DUP4 DUP4 PUSH2 0x808 JUMP JUMPDEST SWAP1 POP SWAP3 SWAP2 POP POP JUMP JUMPDEST PUSH1 0x0 PUSH2 0x72C DUP3 PUSH2 0x9B7 JUMP JUMPDEST PUSH2 0x736 DUP2 DUP6 PUSH2 0x9DA JUMP JUMPDEST SWAP4 POP DUP4 PUSH1 0x20 DUP3 MUL DUP6 ADD PUSH2 0x748 DUP6 PUSH2 0x9A7 JUMP JUMPDEST DUP1 PUSH1 0x0 JUMPDEST DUP6 DUP2 LT ISZERO PUSH2 0x784 JUMPI DUP5 DUP5 SUB DUP10 MSTORE DUP2 MLOAD PUSH2 0x765 DUP6 DUP3 PUSH2 0x70D JUMP JUMPDEST SWAP5 POP PUSH2 0x770 DUP4 PUSH2 0x9CD JUMP JUMPDEST SWAP3 POP PUSH1 0x20 DUP11 ADD SWAP10 POP POP PUSH1 0x1 DUP2 ADD SWAP1 POP PUSH2 0x74C JUMP JUMPDEST POP DUP3 SWAP8 POP DUP8 SWAP6 POP POP POP POP POP POP SWAP3 SWAP2 POP POP JUMP JUMPDEST PUSH1 0x0 PUSH2 0x7A1 DUP3 PUSH2 0x9C2 JUMP JUMPDEST PUSH2 0x7AB DUP2 DUP6 PUSH2 0x9EB JUMP JUMPDEST SWAP4 POP PUSH2 0x7BB DUP2 DUP6 PUSH1 0x20 DUP7 ADD PUSH2 0xA26 JUMP JUMPDEST PUSH2 0x7C4 DUP2 PUSH2 0xB5D JUMP JUMPDEST DUP5 ADD SWAP2 POP POP SWAP3 SWAP2 POP POP JUMP JUMPDEST PUSH1 0x0 PUSH2 0x7DA DUP3 PUSH2 0x9C2 JUMP JUMPDEST PUSH2 0x7E4 DUP2 DUP6 PUSH2 0x9FC JUMP JUMPDEST SWAP4 POP PUSH2 0x7F4 DUP2 DUP6 PUSH1 0x20 DUP7 ADD PUSH2 0xA26 JUMP JUMPDEST PUSH2 0x7FD DUP2 PUSH2 0xB5D JUMP JUMPDEST DUP5 ADD SWAP2 POP POP SWAP3 SWAP2 POP POP JUMP JUMPDEST PUSH1 0x0 PUSH1 0x40 DUP4 ADD PUSH1 0x0 DUP4 ADD MLOAD PUSH2 0x820 PUSH1 0x0 DUP7 ADD DUP3 PUSH2 0x882 JUMP JUMPDEST POP PUSH1 0x20 DUP4 ADD MLOAD DUP5 DUP3 SUB PUSH1 0x20 DUP7 ADD MSTORE PUSH2 0x838 DUP3 DUP3 PUSH2 0x796 JUMP JUMPDEST SWAP2 POP POP DUP1 SWAP2 POP POP SWAP3 SWAP2 POP POP JUMP JUMPDEST PUSH1 0x0 PUSH1 0x40 DUP4 ADD PUSH1 0x0 DUP4 ADD MLOAD PUSH2 0x85D PUSH1 0x0 DUP7 ADD DUP3 PUSH2 0x882 JUMP JUMPDEST POP PUSH1 0x20 DUP4 ADD MLOAD DUP5 DUP3 SUB PUSH1 0x20 DUP7 ADD MSTORE PUSH2 0x875 DUP3 DUP3 PUSH2 0x796 JUMP JUMPDEST SWAP2 POP POP DUP1 SWAP2 POP POP SWAP3 SWAP2 POP POP JUMP JUMPDEST PUSH2 0x88B DUP2 PUSH2 0xA0D JUMP JUMPDEST DUP3 MSTORE POP POP JUMP JUMPDEST PUSH2 0x89A DUP2 PUSH2 0xA0D JUMP JUMPDEST DUP3 MSTORE POP POP JUMP JUMPDEST PUSH1 0x0 PUSH1 0x20 DUP3 ADD SWAP1 POP DUP2 DUP2 SUB PUSH1 0x0 DUP4 ADD MSTORE PUSH2 0x8BA DUP2 DUP5 PUSH2 0x721 JUMP JUMPDEST SWAP1 POP SWAP3 SWAP2 POP POP JUMP JUMPDEST PUSH1 0x0 PUSH1 0x20 DUP3 ADD SWAP1 POP DUP2 DUP2 SUB PUSH1 0x0 DUP4 ADD MSTORE PUSH2 0x8DC DUP2 DUP5 PUSH2 0x7CF JUMP JUMPDEST SWAP1 POP SWAP3 SWAP2 POP POP JUMP JUMPDEST PUSH1 0x0 PUSH1 0x20 DUP3 ADD SWAP1 POP DUP2 DUP2 SUB PUSH1 0x0 DUP4 ADD MSTORE PUSH2 0x8FE DUP2 DUP5 PUSH2 0x845 JUMP JUMPDEST SWAP1 POP SWAP3 SWAP2 POP POP JUMP JUMPDEST PUSH1 0x0 PUSH1 0x20 DUP3 ADD SWAP1 POP PUSH2 0x91B PUSH1 0x0 DUP4 ADD DUP5 PUSH2 0x891 JUMP JUMPDEST SWAP3 SWAP2 POP POP JUMP JUMPDEST PUSH1 0x0 PUSH1 0x40 DUP3 ADD SWAP1 POP PUSH2 0x936 PUSH1 0x0 DUP4 ADD DUP6 PUSH2 0x891 JUMP JUMPDEST DUP2 DUP2 SUB PUSH1 0x20 DUP4 ADD MSTORE PUSH2 0x948 DUP2 DUP5 PUSH2 0x7CF JUMP JUMPDEST SWAP1 POP SWAP4 SWAP3 POP POP POP JUMP JUMPDEST PUSH1 0x0 PUSH2 0x95B PUSH2 0x96C JUMP JUMPDEST SWAP1 POP PUSH2 0x967 DUP3 DUP3 PUSH2 0xA8B JUMP JUMPDEST SWAP2 SWAP1 POP JUMP JUMPDEST PUSH1 0x0 PUSH1 0x40 MLOAD SWAP1 POP SWAP1 JUMP JUMPDEST PUSH1 0x0 PUSH8 0xFFFFFFFFFFFFFFFF DUP3 GT ISZERO PUSH2 0x991 JUMPI PUSH2 0x990 PUSH2 0xB1A JUMP JUMPDEST JUMPDEST PUSH2 0x99A DUP3 PUSH2 0xB5D JUMP JUMPDEST SWAP1 POP PUSH1 0x20 DUP2 ADD SWAP1 POP SWAP2 SWAP1 POP JUMP JUMPDEST PUSH1 0x0 DUP2 SWAP1 POP PUSH1 0x20 DUP3 ADD SWAP1 POP SWAP2 SWAP1 POP JUMP JUMPDEST PUSH1 0x0 DUP2 MLOAD SWAP1 POP SWAP2 SWAP1 POP JUMP JUMPDEST PUSH1 0x0 DUP2 MLOAD SWAP1 POP SWAP2 SWAP1 POP JUMP JUMPDEST PUSH1 0x0 PUSH1 0x20 DUP3 ADD SWAP1 POP SWAP2 SWAP1 POP JUMP JUMPDEST PUSH1 0x0 DUP3 DUP3 MSTORE PUSH1 0x20 DUP3 ADD SWAP1 POP SWAP3 SWAP2 POP POP JUMP JUMPDEST PUSH1 0x0 DUP3 DUP3 MSTORE PUSH1 0x20 DUP3 ADD SWAP1 POP SWAP3 SWAP2 POP POP JUMP JUMPDEST PUSH1 0x0 DUP3 DUP3 MSTORE PUSH1 0x20 DUP3 ADD SWAP1 POP SWAP3 SWAP2 POP POP JUMP JUMPDEST PUSH1 0x0 DUP2 SWAP1 POP SWAP2 SWAP1 POP JUMP JUMPDEST DUP3 DUP2 DUP4 CALLDATACOPY PUSH1 0x0 DUP4 DUP4 ADD MSTORE POP POP POP JUMP JUMPDEST PUSH1 0x0 JUMPDEST DUP4 DUP2 LT ISZERO PUSH2 0xA44 JUMPI DUP1 DUP3 ADD MLOAD DUP2 DUP5 ADD MSTORE PUSH1 0x20 DUP2 ADD SWAP1 POP PUSH2 0xA29 JUMP JUMPDEST DUP4 DUP2 GT ISZERO PUSH2 0xA53 JUMPI PUSH1 0x0 DUP5 DUP5 ADD MSTORE JUMPDEST POP POP POP POP JUMP JUMPDEST PUSH1 0x0 PUSH1 0x2 DUP3 DIV SWAP1 POP PUSH1 0x1 DUP3 AND DUP1 PUSH2 0xA71 JUMPI PUSH1 0x7F DUP3 AND SWAP2 POP JUMPDEST PUSH1 0x20 DUP3 LT DUP2 EQ ISZERO PUSH2 0xA85 JUMPI PUSH2 0xA84 PUSH2 0xABC JUMP JUMPDEST JUMPDEST POP SWAP2 SWAP1 POP JUMP JUMPDEST PUSH2 0xA94 DUP3 PUSH2 0xB5D JUMP JUMPDEST DUP2 ADD DUP2 DUP2 LT PUSH8 0xFFFFFFFFFFFFFFFF DUP3 GT OR ISZERO PUSH2 0xAB3 JUMPI PUSH2 0xAB2 PUSH2 0xB1A JUMP JUMPDEST JUMPDEST DUP1 PUSH1 0x40 MSTORE POP POP POP JUMP JUMPDEST PUSH32 0x4E487B7100000000000000000000000000000000000000000000000000000000 PUSH1 0x0 MSTORE PUSH1 0x22 PUSH1 0x4 MSTORE PUSH1 0x24 PUSH1 0x0 REVERT JUMPDEST PUSH32 0x4E487B7100000000000000000000000000000000000000000000000000000000 PUSH1 0x0 MSTORE PUSH1 0x32 PUSH1 0x4 MSTORE PUSH1 0x24 PUSH1 0x0 REVERT JUMPDEST PUSH32 0x4E487B7100000000000000000000000000000000000000000000000000000000 PUSH1 0x0 MSTORE PUSH1 0x41 PUSH1 0x4 MSTORE PUSH1 0x24 PUSH1 0x0 REVERT JUMPDEST PUSH1 0x0 DUP1 REVERT JUMPDEST PUSH1 0x0 DUP1 REVERT JUMPDEST PUSH1 0x0 DUP1 REVERT JUMPDEST PUSH1 0x0 DUP1 REVERT JUMPDEST PUSH1 0x0 PUSH1 0x1F NOT PUSH1 0x1F DUP4 ADD AND SWAP1 POP SWAP2 SWAP1 POP JUMP JUMPDEST PUSH2 0xB77 DUP2 PUSH2 0xA0D JUMP JUMPDEST DUP2 EQ PUSH2 0xB82 JUMPI PUSH1 0x0 DUP1 REVERT JUMPDEST POP JUMP INVALID LOG2 PUSH5 0x6970667358 0x22 SLT KECCAK256 0xB1 SLOAD SHL 0xD1 0xEF SHR 0xF 0x5C SIGNEXTEND ORIGIN 0xD5 PUSH26 0x1E8C104F3FCE448408AD8C505E8D54763568088264736F6C6343 STOP ADDMOD SMOD STOP CALLER "
				},
				"gasEstimates": {
					"creation": {
						"codeDepositCost": "600600",
						"executionCost": "632",
						"totalCost": "601232"
					},
					"external": {
						"add_person(uint256,string)": "infinite",
						"get_all_persons()": "infinite",
						"name_to_favorite_number(uint256)": "infinite",
						"people(uint256)": "infinite",
						"retrieve()": "2438",
						"retrieve_person(uint256)": "infinite",
						"store(uint256)": "22520"
					}
				},
				"methodIdentifiers": {
					"add_person(uint256,string)": "466748a2",
					"get_all_persons()": "48bc14cf",
					"name_to_favorite_number(uint256)": "e4a1b583",
					"people(uint256)": "9e7a13ad",
					"retrieve()": "2e64cec1",
					"retrieve_person(uint256)": "85a2a5d4",
					"store(uint256)": "6057361d"
				}
			},
			"storageLayout": {
				"storage": [
					{
						"astId": 3,
						"contract": "contracts/simple_storage.sol:SimpleStorage",
						"label": "favorite_number",
						"offset": 0,
						"slot": "0",
						"type": "t_uint256"
					},
					{
						"astId": 5,
						"contract": "contracts/simple_storage.sol:SimpleStorage",
						"label": "favorite_bool",
						"offset": 0,
						"slot": "1",
						"type": "t_bool"
					},
					{
						"astId": 14,
						"contract": "contracts/simple_storage.sol:SimpleStorage",
						"label": "people",
						"offset": 0,
						"slot": "2",
						"type": "t_array(t_struct(People)10_storage)dyn_storage"
					},
					{
						"astId": 18,
						"contract": "contracts/simple_storage.sol:SimpleStorage",
						"label": "name_to_favorite_number",
						"offset": 0,
						"slot": "3",
						"type": "t_mapping(t_uint256,t_string_storage)"
					}
				],
				"types": {
					"t_array(t_struct(People)10_storage)dyn_storage": {
						"base": "t_struct(People)10_storage",
						"encoding": "dynamic_array",
						"label": "struct SimpleStorage.People[]",
						"numberOfBytes": "32"
					},
					"t_bool": {
						"encoding": "inplace",
						"label": "bool",
						"numberOfBytes": "1"
					},
					"t_mapping(t_uint256,t_string_storage)": {
						"encoding": "mapping",
						"key": "t_uint256",
						"label": "mapping(uint256 => string)",
						"numberOfBytes": "32",
						"value": "t_string_storage"
					},
					"t_string_storage": {
						"encoding": "bytes",
						"label": "string",
						"numberOfBytes": "32"
					},
					"t_struct(People)10_storage": {
						"encoding": "inplace",
						"label": "struct SimpleStorage.People",
						"members": [
							{
								"astId": 7,
								"contract": "contracts/simple_storage.sol:SimpleStorage",
								"label": "favorite_number",
								"offset": 0,
								"slot": "0",
								"type": "t_uint256"
							},
							{
								"astId": 9,
								"contract": "contracts/simple_storage.sol:SimpleStorage",
								"label": "favorite_name",
								"offset": 0,
								"slot": "1",
								"type": "t_string_storage"
							}
						],
						"numberOfBytes": "64"
					},
					"t_uint256": {
						"encoding": "inplace",
						"label": "uint256",
						"numberOfBytes": "32"
					}
				}
			},
			"userdoc": {
				"kind": "user",
				"methods": {},
				"version": 1
			}
		}
	}
}